:10000000BAC30000E9C30000E7C30000E5C3000075
:10001000E3C30000E1C30000DFC30000DDC3000054
:10002000DBC30000D9C30000D7C30000D5C3000064
:10003000D3C30000D1C30000CFC30000CDC3000074
:10004000CBC300000C94B20AC7C30000C5C30000B4
:10005000C3C30000C1C30000BFC300000C94261A34
:10006000BBC300000C94C6180C949D18B5C30000C7
:10007000B3C30000B1C30000AFC30000ADC30000B4
:10008000ABC30000A9C30000A7C30000A5C30000C4
:10009000A3C30000A1C300009FC300000C94E40BA5
:1000A0009BC3000099C3000097C3000095C30000E4
:1000B00093C3000091C300008FC300008DC30000F4
:1000C0008BC3000089C3000087C3000085C3000004
:1000D00083C3000081C300007FC300007DC3000014
:1000E0007BC3000017191A1909190D191319511991
:1000F0001E19221928192C19301936193A193E19C6
:100100005119441948194C194E414E494E495459F8
:10011000494E46CDCCCC3D0AD7233C17B7D13877D2
:10012000CC2B329595E6241FB14F0A0000204100E8
:1001300000C84200401C4620BCBE4CCA1B0E5AAE32
:10014000C59D740102102020080810204010204096
:10015000800201020108040201010204081020408B
:1001600080804020100804020180040201804020A9
:1001700010080402010804020101020408102040D2
:100180008001020408102040800000220025002881
:10019000002B002E00310034000201000005010890
:1001A000010B0105050505070508080808020202FC
:1001B000020A0A0808040404040101010101010102
:1001C000010303030303030303040707070C0C0CD9
:1001D0000C0C0C0C0C0202020206060606060606B1
:1001E000060B0B0B0B0B0B0B0B0000200023002648
:1001F0000029002C002F003200000100000301063E
:1002000001090100000000003E5B4F5B3E3E6B4F6A
:100210006B3E1C3E7C3E1C183C7E3C181C577D5798
:100220001C1C5E7F5E1C00183C1800FFE7C3E7FF44
:100230000018241800FFE7DBE7FF30483A060E26D7
:1002400029792926407F050507407F05253F5A3C2F
:10025000E73C5A7F3E1C1C08081C1C3E7F14227F72
:1002600022145F5F005F5F06097F017F006689954A
:100270006A606060606094A2FFA29408047E040833
:1002800010207E201008082A1C08081C2A08081EB6
:10029000101010100C1E0C1E0C30383E3830060E9C
:1002A0003E0E06000000000000005F000000070096
:1002B0000700147F147F14242A7F2A122313086452
:1002C0006236495620500008070300001C224100F6
:1002D0000041221C002A1C7F1C2A08083E08080036
:1002E00080703000080808080800006060002010D6
:1002F0000804023E5149453E00427F400072494990
:1003000049462141494D331814127F102745454570
:10031000393C4A4949314121110907364949493691
:10032000464949291E000014000000403400000026
:100330000814224114141414140041221408020158
:100340005909063E415D594E7C1211127C7F494984
:1003500049363E414141227F4141413E7F49494921
:10036000417F090909013E414151737F0808087F17
:1003700000417F41002040413F017F081422417F1E
:10038000404040407F021C027F7F0408107F3E41B6
:1003900041413E7F090909063E4151215E7F09190D
:1003A0002946264949493203017F01033F40404025
:1003B0003F1F2040201F3F4038403F631408146314
:1003C00003047804036159494D43007F41414102D0
:1003D00004081020004141417F0402010204404012
:1003E000404040000307080020545478407F2844D0
:1003F00044383844444428384444287F38545454BA
:100400001800087E090218A4A49C787F08040478C8
:1004100000447D40002040403D007F102844000003
:10042000417F40007C047804787C080404783844D8
:10043000444438FC1824241818242418FC7C08048C
:100440000408485454542404043F44243C404020AD
:100450007C1C2040201C3C4030403C442810284458
:100460004C9090907C4464544C4400083641000009
:1004700000770000004136080002010204023C2619
:1004800023263C1EA1A161123A4040207A385454E0
:100490005559215555794122545478422155547863
:1004A0004020545579400C1E5272123955555559F9
:1004B000395454545939555454580000457C41001E
:1004C00002457D420001457C407D1211127DF028DD
:1004D0002528F07C545545002054547C547C0A094E
:1004E0007F4932494949323A4444443A324A4848B9
:1004F000303A4141217A3A42402078009DA0A07DC7
:100500003D4242423D3D4040403D3C24FF24244882
:100510007E4943662B2FFC2F2BFF0929F620C0882C
:100520007E090320545479410000447D41304848FD
:100530004A32384040227A007A0A0A727D0D193117
:100540007D2629292F28262929292630484D402073
:10055000380808080808080808382F10C8ACBA2F4F
:10056000102834FA00007B000008142A14222214F8
:100570002A14085500550055AA55AA55AAFF55FF3B
:1005800055FF000000FF00101010FF00141414FFAE
:10059000001010FF00FF1010F010F0141414FC00F5
:1005A0001414F700FF0000FF00FF1414F404FC14FF
:1005B0001417101F10101F101F1414141F001010F8
:1005C00010F0000000001F101010101F101010106D
:1005D000F010000000FF101010101010101010FF8D
:1005E00010000000FF140000FF00FF00001F1017A4
:1005F0000000FC04F414141710171414F404F4008D
:1006000000FF00F714141414141414F700F7141452
:1006100014171410101F101F141414F4141010F0D9
:1006200010F000001F101F0000001F14000000FC4D
:10063000140000F010F01010FF10FF141414FF1439
:100640001010101F00000000F010FFFFFFFFFFF070
:10065000F0F0F0F0FFFFFF0000000000FFFF0F0FC1
:100660000F0F0F3844443844FC4A4A4A347E020291
:100670000606027E027E0263554941633844443CCB
:1006800004407E201E2006027E020299A5E7A5995D
:100690001C2A492A1C4C7201724C304A4D4D303094
:1006A00048784830BC625A463D3E494949007E017F
:1006B00001017E2A2A2A2A2A44445F444440514A9E
:1006C000444040444A51400000FF0103E080FF00E5
:1006D0000008086B6B083612362436060F090F0621
:1006E000000018180000001010003040FF01010049
:1006F0001F01011E00191D1712003C3C3C3C00006C
:100700000000007C3C3E5E2B3D3F2F5B5D3B2C2A76
:10071000225C0000002100240027002A002D003068
:1007200000330001010000040107010A0100000A72
:100730000B02090C0D0E0807030401000000000065
:1007400000000000000000000000000000000000A9
:100750000000000000000000001211100000000066
:100760000000000000000000000000000000000089
:1007700000000000362C11241FBECFEFD1E2DEBFF7
:10078000CDBF00E00CBF28E0ACEAB3E001C01D9291
:10079000AF38B207E1F713E0A0E0B2E0E2E9F6E635
:1007A00000E00BBF02C007900D92AC3AB107D9F739
:1007B00013E0CBEBD3E000E006C021970109802FC6
:1007C000FE010E94D930CA3BD10780E00807A9F793
:1007D0000E945A230C94473313CC0895FC01637094
:1007E000658B8481958126813781613039F0633052
:1007F00029F0918780873387228708953187208762
:100800009387828708952F923F924F925F926F92C3
:100810007F928F929F92AF92BF92CF92DF92EF9290
:10082000FF920F931F93CF93DF93CDB7DEB76C97F3
:100830000FB6F894DEBF0FBECDBF9C8F8B8F5B01D0
:100840001A011F830E833701C982DC0158964D912E
:100850005C9159974115510509F0E5C018968D91A5
:100860009C911997681779070CF0CAC11A968D9157
:100870009C911B97281639060CF0C2C18C2C912C28
:10088000FB0136E0C39EE00DF11D1124FB87EA87D2
:100890001E161F060CF0B4C1C40133E0880F991F67
:1008A0003A95E1F79D878C87820D931D18161906DE
:1008B0000CF0A6C157968C91811103C0203B08F023
:1008C0002F5FAB8DBC8DED91FC9111970284F38568
:1008D000E02DCD012A8F19952A8DB5E02B9F90012F
:1008E0001124F5013596FF87EE87BB82AA82250188
:1008F000A9014A195B09598B488BC10108969B8B4A
:100900008A8BE889F989E40DF51DED5FFD4F94911F
:10091000988761013D822C82A885A0FF13C0AB8D12
:10092000BC8DED91FC91B981B13031F40484F58531
:10093000E02D2E813F8116C00684F785E02DEE80E4
:10094000FF801AC0EE81FF816E167F06F1F0AB8D3D
:10095000BC8DED91FC91B981B13051F40484F585E1
:10096000E02D9301A601B2018B8D9C8D19950DC0D0
:100970000684F785E02D7301840194014C815D812B
:100980006A817B818B8D9C8D1995E885E695E8873A
:10099000FFEFCF1ADF0A2C813D81280D391D3D83E1
:1009A0002C834A895B89C416D50609F0B5CF5FEF61
:1009B000451A550A8A819B81880D991D9B838A83DC
:1009C000AE85BF854A165B0609F09BCFEE81FF819D
:1009D0006E167F0609F4F2C0EB8DFC8DA081B1810B
:1009E000F981F13079F4B5016B5F7F4F5096ED914D
:1009F000FC915197830128E030E0A1018B8D9C8D03
:100A00001995DCC06A857B85681979091E96ED9178
:100A1000FC911F9773010C851D859401A1018B8D9D
:100A20009C8D1995CBC0FA013496949132976591BB
:100A30007491291BCB01B7E02B9F800D911D1124D0
:100A4000FA01259134913B8B2A8BFC0145915491FD
:100A50005B834A83FC013296C490319654915E8741
:100A6000329614913196D4908981823058F0612E5B
:100A7000012E000C7708AD2D0D2C000CBB0BB98797
:100A8000A88704C019861886612C712CAB8DBC8D8B
:100A9000ED91FC9111970284F385E02DCD0119951C
:100AA000B9818B2E912C689CC001699C900D789C1B
:100AB000900D1124FC01EA0DFB1DFD87EC871C82C3
:100AC000712C612CE12F110FFF0B95012E0F3F1F91
:100AD0003B872A87AC0CB11CA5014E0F5F1F5F8BB3
:100AE0004E8BC1018D0D911DD7FC9A95998F888FE2
:100AF0004E85641608F062C0862D90E048855985C1
:100B0000480F591F489D9001499D300D589D300D4B
:100B10001124D901A20DB31DB98BA88BAA84BB8463
:100B20004C845D84DC80BA85DB1AE88DF98DE80F92
:100B3000F91FFD8BEC8B8D2D8A0D2E893F89A21616
:100B4000B306B9F1877061F48A819B810196EA89C5
:100B5000FB89AA81BB81EA0FFB1F74909B838A8368
:100B600077FE20C0AB8DBC8DED91FC91B981B13089
:100B700061F40484F585E02D2E813F814C895D89E7
:100B8000B5018B8D9C8D19950DC00684F785E02DE0
:100B9000EE80FF808401940148895989B2018B8DD0
:100BA0009C8D1995770CEFEFAE1ABE0A480C591CB4
:100BB000C2CF3C813C0D3C8363949ACFAB8DBC8DFE
:100BC000ED91FC9111970688F789E02DCD016C9687
:100BD0000FB6F894DEBF0FBECDBFDF91CF911F914E
:100BE0000F91FF90EF90DF90CF90BF90AF909F90CC
:100BF0008F907F906F905F904F903F902F901994BF
:100C00006C960FB6F894DEBF0FBECDBFDF91CF91CB
:100C10001F910F91FF90EF90DF90CF90BF90AF901A
:100C20009F908F907F906F905F904F903F902F900C
:100C30000895AF92BF92CF92EF92FF920F931F93BE
:100C4000CF93DF93EC01262F888D998D009709F0C3
:100C50003FC06A3059F41D861C862C898E859F857D
:100C600038E0239F800D911D112440C06D3009F4A0
:100C7000A8C08E898823C1F03C898C859D8546E07B
:100C8000349F800D911D11244885598548175907B7
:100C90005CF41D861C868E859F8548E0349F800D00
:100CA000911D11249F878E87EA88FB8808891989FE
:100CB0004E855F856C857D85CC88CE01A4DD2C8931
:100CC0008C859D8536E0239F800D911D112442C0A7
:100CD0006A3079F41D861C862C89FC013696E491D5
:100CE0008E859F852E9F800D911D11249F878E8755
:100CF00068C06D3009F465C0FC0134963491631707
:100D000008F45FC03196E491E61708F45AC0FC017C
:100D10003296A590B490462F50E0431B510937E01E
:100D2000349FB001359F700D1124A60EB71EF5013A
:100D3000329634913196E491332311F0E1110DC0D4
:100D4000F5013496E4912C898C859D85E29F800D78
:100D5000911D11249D878C8734C0F50135964491EF
:100D60005E89552311F16C89E32FF0E0E40FF11D4A
:100D700047FDFA956E9FD0016F9FB00D11244C85F1
:100D80005D854A0F5B1FE885F985E417F5076CF46C
:100D90001D861C86FC013696E4918E859F856E9F8C
:100DA000800D911D11249F878E87EA88FB88088912
:100DB00019894E855F856C857D85CC88CE0123DDC4
:100DC000BFCF81E090E0DF91CF911F910F91FF9015
:100DD000EF90CF90BF90AF9008956F927F928F92D7
:100DE0009F92AF92BF92CF92DF92EF92FF920F93BA
:100DF0001F93CF93DF93EC014B015A016901380136
:100E0000E881F9810284F385E02D1995E881F98163
:100E10000288F389E02D87019601A501B401CE0176
:100E20001995E881F981A501460D571D41505109D9
:100E30000288F389E02D9601B401CE011995E8816D
:100E4000F9810088F189E02D9301A501B401CE015B
:100E50001995E881F981C80CD91CB6016150710956
:100E60000088F189E02D9301A501CE011995E88153
:100E7000F9810688F789E02DCE01DF91CF911F918E
:100E80000F91FF90EF90DF90CF90BF90AF909F9029
:100E90008F907F906F901994CF92DF92EF92FF9294
:100EA0000F931F93CF93DF9300D000D0CDB7DEB761
:100EB0006C01DC01ED91FC916217730789F4041752
:100EC00015072CF4942F852FA801092F182F041B28
:100ED000150B98012F5F3F4F048CF58DE02D12C04C
:100EE0004017510709F5261737072CF4962F872F3F
:100EF000B901292F382F261B370B2F5F3F4F068C48
:100F0000F78DE02D8701C601199526960FB6F89446
:100F1000DEBF0FBECDBFDF91CF911F910F91FF902C
:100F2000EF90DF90CF9008950284F385E02D2D831C
:100F30003E834B835C8369837A831995D601ED9157
:100F4000FC910488F589E02D2D813E814B815C81E7
:100F500069817A81C6011995D601ED91FC910688C7
:100F6000F789E02DC60126960FB6F894DEBF0FBEB6
:100F7000CDBFDF91CF911F910F91FF90EF90DF9048
:100F8000CF901994EF92FF920F931F93DC01ED9194
:100F9000FC9111971A960D911C911B9718962D9103
:100FA0003C91199700A0F1A1E02D7B0140E050E0B9
:100FB00060E070E019951F910F91FF90EF900895F8
:100FC0004F925F926F927F928F929F92AF92BF9259
:100FD000CF92DF92EF92FF920F931F93CF93DF9305
:100FE0001F921F92CDB7DEB76C015A01390148013B
:100FF000DC01ED91FC910284F385E02D69837A8315
:1010000019956981462E7A81572E640C751CD6017C
:10101000ED91FC91461457046CF40088F189E02DA1
:1010200087019401A501B201C6011995BFEF4B1AC2
:101030005B0AEDCF0688F789E02DC6010F900F906F
:10104000DF91CF911F910F91FF90EF90DF90CF90A4
:10105000BF90AF909F908F907F906F905F904F90D8
:101060001994AF92BF92CF92DF92EF92FF920F93BB
:101070001F93CF93DF9300D01F92CDB7DEB75C01F3
:101080006901DC01ED91FC910284F385E02D4B8335
:101090005C8369837A831995D501ED91FC9169810F
:1010A0007A819B012C0D3D1D215031090488F58961
:1010B000E02D78014B815C818A01C5011995D5012C
:1010C000ED91FC910688F789E02DC5010F900F90F6
:1010D0000F900F90DF91CF911F910F91FF90EF90A4
:1010E000DF90CF90BF90AF901994AF92BF92CF9204
:1010F000DF92EF92FF920F931F93CF93DF9300D075
:101100001F92CDB7DEB75C016901DC01ED91FC9166
:101110000284F385E02D4B835C8369837A83199580
:10112000D501ED91FC914B815C81C40ED51EB1E0DF
:10113000CB1AD1080488F589E02D780186016981F0
:101140007A819B01C5011995D501ED91FC91068825
:10115000F789E02DC5010F900F900F900F90DF9150
:10116000CF911F910F91FF90EF90DF90CF90BF90A4
:10117000AF9019940895EF92FF920F931F93DC01A3
:10118000ED91FC9100A0F1A1E02D19951F910F9117
:10119000FF90EF9008950F931F93DC01ED91FC9168
:1011A000068CF78DE02D19951F910F9108950F93DF
:1011B0001F93DC01ED91FC91048CF58DE02D1995C8
:1011C0001F910F910895DC01ED91FC910084F18550
:1011D000E02D199408952F923F924F925F926F9253
:1011E0007F928F929F92AF92BF92CF92DF92EF92B7
:1011F000FF920F931F93CF93DF9300D0CDB7DEB74D
:101200004C017B836A836A01590117019801241BF1
:10121000350B37FF03C0319521953109C5014A814E
:101220005B81841B950B97FF03C091958195910974
:1012300051E059838217930714F019820BC09A2D3D
:101240008B2D5801092F182F9A818B81DB82CA823E
:10125000C92ED82E8A819B81A816B9065CF49C2DD4
:101260008D2D6801092F182F9A818B81BB82AA824C
:10127000A92EB82E2501AA81BB814A1A5B0A380122
:101280006C187D0877FE03C0719461947108720137
:1012900057FE03C0BFEFEB1AFB0AF594E794C016A4
:1012A000D1061CF00FEF1FEF1FC001E010E01CC0C3
:1012B000D401ED91FC91B9810484F585E02D910173
:1012C000BB23C1F04A815B81B601C4011995E618C0
:1012D000F708F7FE04C0C00ED11EE40CF51CEA812D
:1012E000FB813196FB83EA834A815B81A416B506B4
:1012F000FCF604C0A6016A817B81E7CF0F900F90B6
:101300000F90DF91CF911F910F91FF90EF90DF90A1
:10131000CF90BF90AF909F908F907F906F905F9095
:101320004F903F902F90089585ED8093BC00809161
:10133000BC0084FDFCCF1092F60308954091200577
:10134000262F30E0240F311D21323105DCF42091AD
:10135000F6032430C9F4FC0180E090E0861758F4CD
:10136000309120052191DC01A250BB4FA30FB11D8C
:101370002C930196F3CF80912005680F6093200590
:1013800080E0089581E0089582E00895089581E065
:1013900090E03091AD032091AC03321710F480E05F
:1013A00090E091958195910908958091AD03909178
:1013B000AC03891730F48F5F8093AD0380E090E039
:1013C00008958FEF9FEF08958091AC0390E02091F6
:1013D000AD03821B91090895CF92DF92EF92FF92A5
:1013E0000F931F93CF93DF937C01262F972F8A01B2
:1013F0008091F703882391F0C62FD72F6E01C40E7A
:10140000D51ECC15DD0569F06991D701ED91FC91F0
:101410000190F081E02DC7011995F3CF642F822F41
:101420008DDFC801DF91CF911F910F91FF90EF9059
:10143000DF90CF900895CF93DF931F92CDB7DEB7A3
:1014400069832091F7032223D1F0209119042032DF
:1014500040F021E030E0FC013383228380E090E023
:1014600014C08091F803E82FF0E0E750FC4F998119
:1014700090838F5F8093F8038093190404C061E028
:10148000CE0101965BDF81E090E00F90DF91CF917C
:101490000895089580E090E00895FC01838D811106
:1014A00022C028E030E090E8A48DB58D84A5492FB6
:1014B000462319F04C91842B03C04C9180958423D2
:1014C0008C93A68DB78D4C9185A5842B8C93A68D7E
:1014D000B78D4C9185A5809584238C93969521504A
:1014E000310911F708956EBD0DB407FEFDCF0895C3
:1014F00008958CBD9DBD0895CF93CFB7F89480918A
:101500005305811127C0E8EDF1E08491E8E7F1E0AF
:101510009491E82FF0E0EE0FFF1FED5EF84FA591DC
:10152000B491EC91E92321F461E085E30E94521922
:1015300061E085E30E9481198CB580618CBD8CB51A
:1015400080648CBD61E084E30E94811961E083E3E3
:101550000E948119809153058F5F80935305CFBFFF
:10156000CF9108951F920F920FB60F9211240BB6D0
:101570000F922F933F934F935F936F937F938F932C
:101580009F93AF93BF93CF93DF93EF93FF9380919C
:10159000AF03882331F180915205811122C020913F
:1015A000010230E0F901E35DF84F8491F901ED5B50
:1015B000FE4FD491F901ED55FE4FC491CC2369F152
:1015C00081110E94FC18EC2FF0E0EE0FFF1FE75195
:1015D000FE4FA591B491EC91ED2381E0F1F0809361
:1015E000510580915205882341F08091500591E08A
:1015F000980F90935005882391F080915005883082
:1016000010F0109250058091AF03882309F4C7C0F1
:10161000409152054423C9F0C2C080E0E0CF60E0B1
:10162000809100020E94521960E0809102020E94A3
:1016300052191092520580914E0590914F050196D6
:1016400090934F0580934E05D8CF80915105882304
:1016500029F090914D059F5F90934D0520914C0589
:1016600090914B05821759F0903510F02DE101C093
:101670002BE0920F90934B0580934C0503C09C5E2A
:1016800090934B0590914B05903A08F488C02091B7
:10169000490530914A053695279530934A052093A0
:1016A000490580914D05853028F0386030934A0512
:1016B00020934905905A90934B0510924D058091C7
:1016C000AE03882309F45BC0909148059F5F909317
:1016D00048059C3008F463C02091490530914A05C3
:1016E000822F8F73EEE2F2E0DF0190E05D918517CB
:1016F00021F09F5F9031D1F790E050E1959FC001BC
:10170000112496E0369527959A95E1F730E05191AE
:10171000251721F03F5F3031D1F701C0432F842BD3
:101720009091CE0391110EC0809347059CEF980FC6
:101730009B3140F01092AE03809146058F5F8093FD
:1017400046052DC0E091CE0391E09E0F9093CE030D
:10175000F0E0E055FC4F80839091CE0380914705E7
:10176000981750F01092AE03809145058F5F8093DB
:10177000450581E08093CF031092480510C0809109
:10178000490590914A0588339B4049F481E0809354
:10179000AE03109248051092CE031092CF03FF9132
:1017A000EF91DF91CF91BF91AF919F918F917F91F9
:1017B0006F915F914F913F912F910F900BBE0F90C2
:1017C0000FBE0F901F9018951F920F920FB60F9299
:1017D00011240BB60F922F933F934F935F936F9308
:1017E0007F938F939F93AF93BF93EF93FF938091DA
:1017F000B900887F803609F49CC068F5883209F406
:101800005BC090F4803109F454C038F4882309F4A3
:10181000F6C0883009F44DC0F5C0883109F44CC0D9
:10182000803209F45DC0EEC0803409F468C048F429
:10183000803309F455C0883309F0E4C08093F40381
:10184000D8C0803509F44FC0883509F45DC08834AC
:1018500009F0D8C0D6C0883909F4C7C0A8F48837C1
:1018600009F467C038F4883609F463C0803709F496
:1018700060C0C8C0883809F4B8C0803909F45FC0B6
:10188000803809F0BFC05BC0803B09F486C038F4E3
:10189000803A09F466C0883A09F47FC0B3C0803C3E
:1018A00009F4A7C0883C09F4A4C0883B09F48AC0A5
:1018B000A9C08091D10310C09091F3038091F203ED
:1018C000981770F5E091F30381E08E0F8093F30396
:1018D000F0E0EE52FC4F80818093BB0085EC86C027
:1018E0008093F4038EC0E091F30381E08E0F809328
:1018F000F3038091BB00F0E0EE52FC4F80839091A7
:10190000F3038091F2036EC0E091F30381E08E0F48
:101910008093F3038091BB00F0E0EE52FC4F808394
:101920008091F50381116DC081E08093D00384EA3A
:1019300061C083E08093F60310924405CFCF80917D
:101940004405803208F051C0E091440581E08E0FDB
:10195000809344058091BB00F0E0EC5DFA4F8083FA
:10196000BDCF85EC8093BC001092F60380914405B6
:10197000803230F4E0914405F0E0EC5DFA4F1082E3
:101980006091440570E0E0912205F091230584E226
:1019900095E019951092440535C084E08093F603D4
:1019A0001092210510922005E0911E05F0911F056F
:1019B000199580912005811105C081E08093200553
:1019C0001092FE04E091210581E08E0F80932105A5
:1019D000F0E0E250FB4F80818093BB0090912105A5
:1019E00080912005981708F479CF85E88093BC0092
:1019F00009C085EC8093BC001092F60303C01092DE
:101A0000F40392DCFF91EF91BF91AF919F918F9181
:101A10007F916F915F914F913F912F910F900BBEEE
:101A20000F900FBE0F901F9018956115710579F0FA
:101A3000FB0101900020E9F73197AF01461B570BDE
:101A4000DC01ED91FC910280F381E02D199480E09E
:101A500090E008953F924F925F926F927F928F92A3
:101A60009F92AF92BF92CF92DF92EF92FF920F932D
:101A70001F93CF93DF93CDB7DEB72C970FB6F894B3
:101A8000DEBF0FBECDBF5C01DC015B968D909C90EC
:101A90005C971696CD90DD90ED90FC901997C1144F
:101AA000D104E104F10439F0BFEFCB1ADB0AEB0AF1
:101AB000FB0A312C07C0F401C080D180E280F380A2
:101AC00033243394F40181859285A385B4859C01E8
:101AD000AD012F5F3F4F4F4F5F4F29873A874B87AD
:101AE0005C87260137011D821E821F821886F40141
:101AF00081859285A385B4852D813E814F8158854E
:101B0000281739074A075B0708F063C089859A855B
:101B1000AB85BC858C159D05AE05BF0550F482E0F4
:101B2000C82ED12CE12CF12C92E0492E512C612CA5
:101B3000712C9E012F5F3F4FB701A601C4010E9487
:101B4000101B882309F445C089819A81AB81BC812F
:101B5000892B8A2B8B2B41F0260137019FEF491AE5
:101B6000590A690A790A05C0C414D504E604F704C1
:101B700091F02D813E814F8158852F5F3F4F4F4F10
:101B80005F4F2D833E834F8358873FEFC31AD30A9D
:101B9000E30AF30AACCF0FEF1FEF2FEF3FE0B301E3
:101BA000A201C4010E94701A882399F0D5011696EB
:101BB0004D915D916D917C9119974115510561058C
:101BC000710549F093018201C4010E94701A8111CC
:101BD00002C080E02AC0D50116964D925D926D92AA
:101BE0007C921997332051F0D301C2010196A11DB7
:101BF000B11DF40180839183A283B383F5018789AA
:101C0000908DA18DB28D892B8A2B8B2B69F4D501F8
:101C100057964D925D926D927C925A9714968C9144
:101C20001497806814968C9381E02C960FB6F894E4
:101C3000DEBF0FBECDBFDF91CF911F910F91FF90FF
:101C4000EF90DF90CF90BF90AF909F908F907F905C
:101C50006F905F904F903F9008954F925F926F9278
:101C60007F92AF92BF92CF92DF92EF92FF920F934B
:101C70001F93CF93DF9300D01F92CDB7DEB78C01B7
:101C800049835A836B837C835901C12CD12C760103
:101C9000412C82E0582E612C712C49815A816B8134
:101CA0007C819E012F5F3F4FC8010E94101B88233B
:101CB00051F1D301C201F801058404C0880F991FB6
:101CC000AA1FBB1F0A94D2F7C80ED91EEA1EFB1E1C
:101CD00049815A816B817C818789803129F088EF25
:101CE0009FEFAFEFBFE004C088EF9FEFA0E0B0E050
:101CF000481759076A077B0780F2F501C082D18235
:101D0000E282F38281E00F900F900F900F90DF91AD
:101D1000CF911F910F91FF90EF90DF90CF90BF90E8
:101D2000AF907F906F905F904F9008958F929F92A9
:101D3000AF92BF92CF92DF92EF92FF920F931F93D9
:101D4000CF93DF93EC018D81811102C080E077C0D9
:101D50000B891C892D893E8904171507260737072B
:101D6000A8F36A017B01823029F4CA86DB86EC86FF
:101D7000FD860DC0C114D104E104F10451F41E82AA
:101D80001F82188619861A861B861C861D8681E08E
:101D900056C08A849B84AC84BD84EB8DFC8D2585E4
:101DA00030E0275F3F4FB501A4014150510961095F
:101DB0007109022E04C076956795579547950A9448
:101DC000D2F7D701C6010197A109B10904C0B695A0
:101DD000A795979587952A95D2F784179507A60713
:101DE000B70720F089288A288B2849F44F89588D15
:101DF000698D7A8D4E835F836887798704C0841BE1
:101E0000950BA60BB70B4C015D018E010A5F1F4FAE
:101E100081149104A104B10409F4A7CF4E815F811C
:101E20006885798598018B8D9C8D0E94101B91E0AF
:101E3000891A9108A108B1088111EACF87CFDF91F3
:101E4000CF911F910F91FF90EF90DF90CF90BF90B7
:101E5000AF909F908F900895CF93DF93EC01809186
:101E60005405811108C081E08093540580910208D7
:101E7000909103083EDB60E08C81DF91CF910C9460
:101E8000521961E0FC0184810E945219809154052D
:101E9000882319F0109254052BCB08958EBD0000B5
:101EA0000DB407FEFDCF8EB508958FEFF7CF0F93DA
:101EB0001F93CF93DF93EB010E941A1A8B01F5DF7A
:101EC0008F3F49F00E941A1A601B710B6C177D0737
:101ED000B0F380E001C081E0DF91CF911F910F91BD
:101EE0000895CF93DF93EC018E81882379F08F8161
:101EF00098859C012F5F3F4F38872F838230924017
:101F000010F4D3DFF4CFCE01BCDF1E82DF91CF917E
:101F10000895CF92DF92FF920F931F93CF93DF9399
:101F200000D01F92CDB7DEB76C01F62E29833A831D
:101F30004B835C83D6DFC6018FDF6CE271E0C601A4
:101F4000B6DF8F2D8064AADF08E110E05C814B8151
:101F50003A812981DA01C901002E04C0B695A795FE
:101F6000979587950A94D2F729833A834B835C83AC
:101F700095DF0850110929813A814B815C81083F26
:101F80008FEF180739F7FF2029F0E8E0FE1204C0B0
:101F900087E803C085E901C08FEF80DF10E085DFAF
:101FA000F601828787FF04C01F3F11F01F5FF7CF44
:101FB0000F900F900F900F90DF91CF911F910F9185
:101FC000FF90DF90CF900895AF92BF92CF92DF92B3
:101FD000EF92FF920F931F93CF93DF93EC01690170
:101FE000C801820F931F8130924008F06AC08E8131
:101FF000882371F088819981AA81BB81481759078C
:102000006A077B0729F48F819885C816D90698F549
:10201000488359836A837B838B85833039F089E0D9
:10202000440F551F661F771F8A95D1F79A01AB01A0
:1020300061E1CE016EDF882319F083E08D8341C01A
:102040000E941A1A5B0131DF8A878F3F49F40E9490
:102050001A1A6A197B096D327140A8F38FE003C028
:102060008E3F29F08DE08D83CE010BDF2AC01886CC
:102070001F8281E08E838F8198858C159D0538F4B1
:1020800014DF8F819885019698878F83F4CF67013D
:10209000E00EF11ECE14DF0429F007DFF601819374
:1020A0006F01F8CF8F819885080F191F18870F834C
:1020B0008985882319F00115124038F0CE0111DF0F
:1020C00004C0CE01DEDE80E001C081E0DF91CF916F
:1020D0001F910F91FF90EF90DF90CF90BF90AF9046
:1020E0000895EF92FF920F931F93CF93DF93EC012C
:1020F0007901411551056105710511F482E134C082
:102100008B85833039F089E0440F551F661F771F98
:102110008A95D1F79A01AB0168E1CE01FADE8823F6
:1021200011F084E021C08EEFB9DE87018EEFF81A3E
:10213000F80181918F01B2DE0E151F05C9F78FEFEF
:10214000ADDE8FEFABDEB1DE8A878F71853029F08F
:1021500081E18D83CE0195DE08C068E572E0CE0195
:10216000A6DE811106C085E18D83CE018ADE80E086
:1021700010C020E030E0A9016DE0CE01CADE81117F
:1021800003C093DE882311F084E1EECFCE0179DE27
:1021900081E0DF91CF911F910F91FF90EF90089513
:1021A00080915505882399F14091030250910402D2
:1021B000609105027091060223E635E08091630785
:1021C000909164078EDF811102C080E008954091F4
:1021D0005605509157056091580570915905411564
:1021E00051056105710589F023E635E080916307AB
:1021F0009091640776DF882341F310925605109280
:10220000570510925805109259051092550581E016
:1022100008958F929F92AF92BF92EF92FF920F9389
:102220001F93CF934B015C01C42F809103029091C7
:102230000402A0910502B091060288159905AA052D
:10224000BB05F1F0ADDF811102C080E01FC083E665
:10225000E82E85E0F82E00E012E020E030E0B50145
:10226000A4018091630790916407AEDE882369F32F
:102270008092030290920402A0920502B09206029C
:1022800080915505C82BC093550581E0CF911F91D2
:102290000F91FF90EF90BF90AF909F908F90089517
:1022A000CF93DF93EC018D81882391F18C8187FF9F
:1022B0002CC06E857F858889998941E0AADF8823B3
:1022C00039F1EA8980E2E89FF0011124DF01AD597C
:1022D000BA4F1097E9F08D81823050F44B895C89B8
:1022E0006D897E895C964D935D936D937C935F972A
:1022F0008F89988DA98DBA8DED59FA4F938F828F62
:10230000B58BA48B8C818F778C83DF91CF9148CF55
:1023100080E0DF91CF9108958F929F92AF92BF920C
:10232000CF92DF92EF92FF920F931F93CF93DF93A1
:1023300000D01F92CDB7DEB77C0180E2689F6001BC
:10234000112496012D593A4FD9011B969C919171F8
:1023500021F0842F827409F095C0142FF701628B4D
:102360008091030290910402A0910502B0910602AF
:1023700086879787A08BB18BF601ED59FA4F448978
:10238000558960E070E0BA0155274427D701579678
:102390004D935D936D937C935A97828D938DA0E0BE
:1023A000B0E0482B592B6A2B7B2BD70157964D93C6
:1023B0005D936D937C935A97D9011B968C9188718C
:1023C00059F4848D958DA68DB78DF701838B948BF1
:1023D000A58BB68B81E011C0803109F053C0970105
:1023E0002D5E3F4FD7015B968D919C915C9735DCBC
:1023F000882309F447C084E0F7018583812F8F701B
:10240000D70114968C931497F701168217821086C1
:1024100011861A961D921D921D921C921D9716FFF1
:1024200033C015968C91813069F511FF2BC0F701EF
:102430004389548965897689452B462B472B09F4B6
:102440005EC040E050E0BA01C70170DC8823D1F0E3
:10245000F7018788908CA18CB28CC38CD48C82E0DD
:1024600090E0A0E0B0E0F60180839183A283B38383
:102470009E012F5F3F4FB501A401C6010E94101BB2
:10248000811104C080E03BC081E039C000E010E071
:102490009801B501A401C6010E94701A882391F326
:1024A00089809A80AB80BC80D60157968C91803110
:1024B00029F088EF9FEFAFEFBFE004C088EF9FEFF8
:1024C000A0E0B0E088169906AA06BB0688F2D701FC
:1024D00057961D921D921D921C925A97F701138ACE
:1024E000148A158A168A848180688483C701D8DE9D
:1024F000882341F240E050E0BA01C70117DC0F9099
:102500000F900F900F90DF91CF911F910F91FF903F
:10251000EF90DF90CF90BF90AF909F908F900895F5
:10252000CF93DF93EC01BCDE882311F01D8281E0A4
:10253000DF91CF910895CF92DF92EF92FF921F9398
:10254000CF93DF93EC0186DA811102C080E05DC099
:10255000EB8DFC8DCE80DF80E884F98482E0C81AA0
:10256000D108E108F108058404C0CC0CDD1CEE1C88
:10257000FF1C0A94D2F786859785A089B189C80E79
:10258000D91EEA1EFB1E148181E0C81AD108E10899
:10259000F1081123F9F004DE8823C1F2E3E6F5E047
:1025A000119287E0E336F807D9F7D701C601810F0A
:1025B000911DA11DB11D8093030290930402A0936D
:1025C0000502B09306028091550581608093550500
:1025D0001150DFCFEB8DFC8D80E092E0A0E0B0E009
:1025E000058404C0880F991FAA1FBB1F0A94D2F745
:1025F0004B895C896D897E89840F951FA61FB71F43
:102600008B8B9C8BAD8BBE8B81E0DF91CF911F912B
:10261000FF90EF90DF90CF9008958F929F92AF92AE
:10262000BF92CF92DF92EF92FF920F931F93CF93BF
:10263000DF93CDB7DEB72B970FB6F894DEBF0FBE92
:10264000CDBF7C01FC01A580A1100AC1CE0101967D
:102650006C01FC0190E28BE08C0D91938E13FDCF09
:10266000DA0130E087E09D91992339F19E3219F02B
:10267000E3E0F7E00AC08A3009F4F3C038E08AE00A
:10268000F2CF3196491709F4ECC044914111F9CFCA
:10269000831708F4E6C04FED490F4E3508F0E1C04E
:1026A00041E0430FF601E30FF11D3FE9390F3A31E5
:1026B00008F490529083342FD6CF8981803209F468
:1026C000D0C0B22E8B01FB01838D948DF701948FC6
:1026D000838FFB011682178210861186128613865D
:1026E00014861586912CF80182859385A485B5857D
:1026F000438954896589768984179507A607B707A2
:1027000008F060C025E0B695A795979587952A951E
:10271000D1F7F82FFF708F2EF8018581823008F4F1
:10272000A0C0C8010E944B1D97FD9BC0F801828587
:102730009385A485B5854F96A11DB11D828793878A
:10274000A487B587F0E28F9EC0011124BC016D59AA
:102750007A4F6115710509F484C0FB0120812223A1
:1027600019F0253EC1F427C091100EC0F701828AEE
:10277000409103025091040260910502709106029B
:1027800046875787608B718BFC01ED59FA4F80812A
:10279000811113C015C04BE050E0C6010E94F63213
:1027A000892B09F0A0CF8B2D8073803309F459C099
:1027B0004B2D682D51C09920C9F29924939493CF41
:1027C000992493948B2D8271823109F04AC099200B
:1027D000B1F0F701668577858089918941E019DD3F
:1027E000882309F43EC0F7016289F0E26F9FB001CF
:1027F00011246D597A4F6115710569F432C0F801E1
:102800008581823071F1C80196DE882351F1F7018C
:10281000128A63E675E080E2FB0111928A95E9F77E
:102820008BE0F601DB0101900D928A95E1F781E2E0
:1028300098E2FB01918B808B20E038E03787268778
:10284000938B828B918F808F378B268BA9DC88238B
:1028500041F04B2DF7016289C7015EDDA82E01C052
:10286000A12C8A2D2B960FB6F894DEBF0FBECDBFDC
:10287000DF91CF911F910F91FF90EF90DF90CF905C
:10288000BF90AF909F908F9008952F923F924F925C
:102890005F926F927F928F929F92AF92BF92CF92F0
:1028A000DF92EF92FF920F931F93CF93DF9300D0AD
:1028B0001F92CDB7DEB78C015B011A01DC011596C2
:1028C0008C9115978130C1F414968C9181FF14C0BE
:1028D00082FF1AC0F8014389548965897689828507
:1028E0009385A485B58584179507A607B70761F07A
:1028F000C8011CDA811108C081E090E0F8019383DF
:10290000828380E090E034C1610182C0D8015B968F
:102910008D919C915C97FC01248121502A013B01FF
:1029200039E076946794579447943A95D1F7722E8C
:1029300074207A01F1E0FF22772009F475C080E06D
:1029400092E08E199F0946018C159D0508F44C01F3
:10295000D8015B962D913C915C9716968D919D9137
:102960000D90BC91A02D0297A109B109F901058430
:1029700004C0880F991FAA1FBB1F0A94D2F746856F
:10298000578560897189840F951FA61FB71F9C0109
:10299000AD01270D311D411D511D29013A01811441
:1029A00032E0930609F086C0809103029091040200
:1029B000A0910502B091060284159505A605B705FC
:1029C00059F48FEF9FEFDC01809303029093040290
:1029D000A0930502B09306029501B301A201809174
:1029E0006307909164077DDB882309F485CF9EEF10
:1029F000B91AC818D908F80182859385A485B585C8
:102A0000880D991DA11DB11D82879387A487B58765
:102A1000D8011A964D915D916D917C911D97C114CD
:102A2000D10409F073CF84C0E114F10409F087CF19
:102A300016964D915D916D917C91199741155105B7
:102A40006105710559F457968D919D910D90BC913A
:102A5000A02D0097A105B10539F520C09E012F5F7B
:102A60003F4FDED5882309F44DCF89819A81AB8110
:102A7000BC81F801238D348DF9012789203129F09B
:102A800048EF5FEF6FEF7FE004C048EF5FEF60E07B
:102A900070E084179507A607B70730F0C8010E94B9
:102AA0002A0D81114CCF28CFF80186839783A08708
:102AB000B18745CFE114F10421F5D8011A964D9163
:102AC0005D916D917C911D9753968D919D910D9087
:102AD000BC91A02D481759076A077B0790F060DB6F
:102AE000882309F409CF40920302509204026092B5
:102AF000050270920602809155058160809355050C
:102B000007C041E0C301B20184DB882309F4F4CE9D
:102B1000D501F701ED59FA4FCF01880D991DE8173E
:102B2000F90719F02D912193FACFA80CB91C61CFA8
:102B300053968D919D910D90BC91A02D8417950772
:102B4000A607B70740F4F801438B548B658B768B4F
:102B5000848180688483D80114968C9183FD02C09F
:102B6000C10106C0C8019CDB882309F4C5CEF8CF9B
:102B70000F900F900F900F90DF91CF911F910F91B9
:102B8000FF90EF90DF90CF90BF90AF909F908F908D
:102B90007F906F905F904F903F902F900895CF93CC
:102BA000DF931F92CDB7DEB7698341E050E0BE01ED
:102BB0006F5F7F4F6ADE0F90DF91CF910895FC0128
:102BC000DB0112968D919C9113979383828384E508
:102BD00092E09183808314968C9114978483159648
:102BE0008C911597858316964D915D916D917C9191
:102BF000199746835783608771871A964D915D9127
:102C00006D917C911D9742875387648775871E96C7
:102C10004D915D916D917C91519746875787608B5F
:102C2000718B52968C915297828B53964D915D91F8
:102C30006D917C915697438B548B658B768B579611
:102C40004D915D916D917C915A97478B508F618F1B
:102C5000728F5B968D919C915C97948F838F089572
:102C6000CF92DF92EF92FF920F931F93CF93DF9358
:102C70006C017A018B01C0E0D0E0CE15DF0589F050
:102C8000D8016D918D01D601ED91FC910190F081FB
:102C9000E02DC6011995892B11F47E0102C0219601
:102CA000ECCFC701DF91CF911F910F91FF90EF9073
:102CB000DF90CF900895FC01538D448D252F30E097
:102CC000842F90E0821B930B541710F0CF96089539
:102CD00001970895FC01918D828D981761F0828D86
:102CE000DF01A80FB11D5D968C91928D9F5F9F7340
:102CF000928F90E008958FEF9FEF0895FC01918DE2
:102D0000828D981731F0828DE80FF11D858D90E04E
:102D100008958FEF9FEF0895FC01918D228D892FEB
:102D200090E0805C9F4F821B91098F7399270895D3
:102D300085E697E0F1DF21E0892B09F420E0822F7E
:102D40000895FC01848DDF01A80FB11DA35ABF4F68
:102D50002C91848D90E001968F739927848FA6899A
:102D6000B7892C93A089B1898C9180648C93938DC1
:102D7000848D981306C00288F389E02D80818F7DB1
:102D800080830895EF92FF920F931F93CF93DF9369
:102D9000EC0181E0888F9B8D8C8D981305C0E889AC
:102DA000F989808185FD23C0F62E0B8D10E00F5F21
:102DB0001F4F0F731127E02E8C8DE8120BC00FB63A
:102DC00007FCFACFE889F989808185FFF5CFCE012C
:102DD000B8DFF2CF8B8DFE01E80FF11DE35AFF4FF4
:102DE000F0820B8FEA89FB898081806207C0EE89BF
:102DF000FF896083E889F98980818064808381E02C
:102E000090E0DF91CF911F910F91FF90EF90089587
:102E1000CF93DF93EC01888D8823C1F0EA89FB8989
:102E2000808185FD05C0A889B9898C9186FD0EC079
:102E30000FB607FCF5CF808185FFF2CFA889B9894D
:102E40008C9185FFEDCFCE017CDFE8CFDF91CF9174
:102E5000089580E090E0892B19F06ADF811125C088
:102E600080E090E0892B41F080E090E0892B21F018
:102E70000E94000081111CC080E090E0892B41F08D
:102E800080E090E0892B21F00E940000811113C0A6
:102E900080E090E0892BA1F080E090E0892B81F028
:102EA0000E94000081110AC008950E940000D8CF3E
:102EB0000E940000E1CF0E940000EACF0C940000C5
:102EC00008950E94F232EF92FF920F931F93CF93D7
:102ED000DF93EC017B018A0188819981009729F0B9
:102EE0002A813B8124173507F8F4B8016F5F7F4FC3
:102EF0000E940E32009759F0998388831B830A83BE
:102F00002C813D81232B81F4FC0110820DC088812E
:102F10009981009711F00E947631198218821D82E2
:102F20001C821B821A8207C01D830C83B701888113
:102F300099810E941733CE01DF91CF911F910F919C
:102F4000FF90EF900895CF93DF93FC0124813581AA
:102F5000232B71F0FB01DC01CD91DC91608171814B
:102F6000CE010E942D33009719F08C1B9D0B02C0DF
:102F70008FEF9FEFDF91CF910895CF93DF93FC0107
:102F800024813581232B69F0C081D181062E000C6C
:102F9000770BCE010E940C33009719F08C1B9D0B10
:102FA00002C08FEF9FEFDF91CF910895FC018081E8
:102FB00091810C947631FC0111821082138212826D
:102FC000158214826115710549F0FB010190002002
:102FD000E9F73197AF01461B570B75CF0895BF92A4
:102FE000CF92DF92EF92FF920F931F93CF93DF93D5
:102FF0007C016B01EA0189012417350720F48D2F2C
:10300000E901042F182F69EC72E0C701D4DFD60163
:1030100014968D919C911597C817D907C0F5801704
:10302000910708F48C01D601ED91FC911197E00F06
:10303000F11FB08010824D915C91BA016C0F7D1F21
:103040006115710559F0FB0101900020E9F73197F6
:10305000AF01461B570BC70136DF13C0F701808154
:103060009181009711F00E947631D70111961C9240
:103070001E9215961C921E92149713961C921E92E5
:103080001297D601ED91FC91E00FF11FB082C701BC
:10309000DF91CF911F910F91FF90EF90DF90CF9034
:1030A000BF9008954F925F926F927F92EF92FF923E
:1030B0000F931F93CF93DF93CDB7DEB7A1970FB6D2
:1030C000F894DEBF0FBECDBF7C01FA01CB0119A27F
:1030D000223008F42AE08E010F5D1F4F422E512C42
:1030E000612C712CBF01A30192010E94B730F9013C
:1030F000CA01015011096A3014F4605D01C0695CB5
:10310000D8016C93232B242B252B61F7B801C70121
:103110000E94150DA1960FB6F894DEBF0FBECDBF6D
:10312000DF91CF911F910F91FF90EF907F906F9063
:103130005F904F9008950C94150D1F920F920FB64B
:103140000F9211240BB60F922F933F934F935F93DF
:103150006F937F938F939F93AF93BF93EF93FF935F
:1031600085E697E0EEDDFF91EF91BF91AF919F91E2
:103170008F917F916F915F914F913F912F910F9020
:103180000BBE0F900FBE0F901F9018951F920F92BD
:103190000FB60F9211240BB60F922F938F939F931C
:1031A000EF93FF93E0917507F09176078081E091AE
:1031B0007B07F0917C0782FD12C0908180917E0791
:1031C0008F5F8F7320917F07821751F0E0917E0708
:1031D000F0E0EB59F84F958F80937E0701C0808116
:1031E000FF91EF919F918F912F910F900BBE0F90B8
:1031F0000FBE0F901F90189590E0FC013197E231BF
:10320000F10508F04EC08827EE58FF4F8F4F0C9401
:10321000D930809180008F7703C0809180008F7DAE
:1032200080938000089580918000877FF9CF84B5D6
:103230008F7702C084B58F7D84BD08958091B000E2
:103240008F7703C08091B0008F7D8093B000089588
:10325000809190008F7707C0809190008F7D03C090
:1032600080919000877F8093900008958091A000C6
:103270008F7707C08091A0008F7D03C08091A00050
:10328000877F8093A0000895809120018F7707C0E9
:10329000809120018F7D03C080912001877F8093E2
:1032A000200108951F93CF93DF93282F30E0F90179
:1032B000E35DF84F8491F901ED5BFE4FD491F90184
:1032C000ED55FE4FC491CC23C1F0162F811194DF30
:1032D000EC2FF0E0EE0FFF1FE757FE4FA591B491E2
:1032E0008FB7F894111105C09C91ED2FE095E9235B
:1032F00002C0EC91ED2BEC938FBFDF91CF911F912A
:103300000895CF93DF9390E0FC01ED5BFE4F249195
:10331000FC01ED55FE4F8491882361F190E0880F08
:10332000991FFC01ED5EF84FC591D491FC01E75760
:10333000FE4FA591B491611109C09FB7F89488819F
:10334000209582238883EC912E230BC0623061F498
:103350009FB7F8943881822F809583238883EC91DE
:103360002E2B2C939FBF06C08FB7F894E8812E2B8D
:1033700028838FBFDF91CF9108953FB7F894809154
:103380005F0590916005A0916105B091620526B539
:10339000A89B05C02F3F19F00196A11DB11D3FBF8D
:1033A000BA2FA92F982F8827820F911DA11DB11D1B
:1033B000BC01CD0142E0660F771F881F991F4A9517
:1033C000D1F708958F929F92AF92BF92CF92DF92E2
:1033D000EF92FF926B017C01D0DF4B015C01C114C5
:1033E000D104E104F104E9F0C8DFDC01CB01881964
:1033F0009909AA09BB09883E9340A105B10578F354
:1034000021E0C21AD108E108F10888EE880E83E0B5
:10341000981EA11CB11CC114D104E104F10421F7D0
:10342000DECFFF90EF90DF90CF90BF90AF909F9056
:103430008F9008952FB7F89460915B0570915C05AB
:1034400080915D0590915E052FBF08951F920F92A8
:103450000FB60F9211242F933F938F939F93AF93A7
:10346000BF9380915B0590915C05A0915D05B09143
:103470005E0530915A0523E0230F2D3720F4019685
:10348000A11DB11D05C026E8230F0296A11DB11D87
:1034900020935A0580935B0590935C05A0935D058E
:1034A000B0935E0580915F0590916005A0916105E4
:1034B000B09162050196A11DB11D80935F059093A7
:1034C0006005A0936105B0936205BF91AF919F9194
:1034D0008F913F912F910F900FBE0F901F901895D5
:1034E0004F925F926F927F928F929F92AF92BF9214
:1034F000CF92DF92EF92FF920F931F93CF93DF93C0
:10350000EC016A017B012801390142305105610556
:10351000710510F480E073C089859A85AB85BC8500
:103520000196A11DB11D84179507A607B70790F353
:103530008B889C88AD88BE888F89803129F4BB2711
:10354000AF2D9E2D8D2D09C0DB01CA0147E0B69538
:10355000A795979587954A95D1F7880E991EAA1E2B
:10356000BB1E8091030290910402A0910502B091CC
:10357000060288169906AA06BB0679F48F8980315F
:10358000A1F4DD24EE24FF24C601880F991FFC015D
:10359000ED59FA4F5182408219C040E0C501B40193
:1035A0000E9409118111EACFB5CFE894C7F8DD2454
:1035B000EE24FF24C601880F991F880F991FFC0174
:1035C000ED59FA4F40825182628273828091550593
:1035D0008160809355058A89823080F08D819E813B
:1035E000AF81B885880E991EAA1EBB1E8092560513
:1035F00090925705A0925805B092590581E0DF914D
:10360000CF911F910F91FF90EF90DF90CF90BF90DF
:10361000AF909F908F907F906F905F904F900895A4
:103620008F929F92AF92BF92CF92DF92EF92FF92D2
:103630000F931F93CF93DF93FC0181859285A38520
:10364000B4850196A11DB11D84179507A607B7077C
:1036500010F480E05CC083899489A589B689C78904
:10366000C03129F4852E962EA72EBB2409C04A010D
:103670005B01C7E0B694A79497948794CA95D1F755
:10368000E9016A017B018F01BC01CD01680D791D43
:103690008A1D9B1D8090030290900402A090050259
:1036A000B0900602681579058A059B0599F4F80122
:1036B00087898031A9F4B701A601552766277727A6
:1036C000440F551FFA01ED59FA4F80819181A0E016
:1036D000B0E018C040E00E9409118111E8CFB9CFD5
:1036E000B701A6014F77552766277727440F551F47
:1036F000440F551FFA01ED59FA4F80819181A28143
:10370000B381BF7088839983AA83BB8381E0DF91F3
:10371000CF911F910F91FF90EF90DF90CF90BF90CE
:10372000AF909F908F900895DC015996ED91FC9198
:103730005A973097B9F083899489A589B6894285CB
:10374000538564857585841B950BA60BB70B811576
:1037500020E89207A105B10538F08FEF9FE7A0E0C0
:10376000B0E0089580E090E00895CF93DF931F923A
:10377000CDB7DEB76983DC01ED91FC910280F38166
:10378000E02D41E050E0BE016F5F7F4F19950F9033
:10379000DF91CF910895EF92FF920F931F93DC0179
:1037A000ED91FC9111971A960D911C911B9718960B
:1037B0002D913C91199700A0F1A1E02D7B0140E0F3
:1037C00050E060E070E019951F910F91FF90EF902D
:1037D0000895FC01818D928D009711F00C94501189
:1037E00008951F93CF93DF93CDB7DEB76D970FB6D4
:1037F000F894DEBF0FBECDBFAB011C821B8224E557
:1038000032E03A8329831E8221E0BC01CE01019679
:103810000E940D1311E0811102C010E004C0CE011E
:1038200001960E949012812F6D960FB6F894DEBF1C
:103830000FBECDBFDF91CF911F9108956F927F9200
:103840008F929F92BF92CF92DF92EF92FF920F934F
:103850001F93CF93DF93CDB7DEB7ED970FB6F894F4
:10386000DEBF0FBECDBF8C017B011CA21BA284E575
:1038700092E09AA389A31EA2C801B3DF8111A6C05A
:1038800023E3A701B801CE0181960E940D1388237E
:10389000C9F081E08DA384E08EA3CE0181960E94C1
:1038A0009B12882379F0CE0181960E9450118823C3
:1038B00049F06FA578A989A99AA941E00E94091148
:1038C000811102C090E07EC02BA980E2289F900168
:1038D00011242D593A4F21153105A1F380E1F90149
:1038E000838780E2DE01119601900D928A95E1F7BF
:1038F000F901E488F588C28CD38CFE013296CE01A2
:103900000C9620E22193E817F907E1F78EE2B82E32
:10391000B982ECADFDAD88AD99ADAAADBBAD029756
:10392000A109B109058404C0880F991FAA1FBB1FF4
:103930000A94D2F746855785608971893C014D010B
:10394000640E751E861E971EC401B30141E00E94DD
:103950000911882309F4B6CFFE8AED8ADC8ECB8E5E
:1039600080E2FE013196A3E6B5E001900D928A95C2
:10397000E1F7BA82F80185818250823038F04789B8
:10398000508D618D728DCA019B0104C080E090E072
:1039900020E030E03E8B2D8B9C8F8B8F80E2FE01F0
:1039A0003196A3E8B5E001900D928A95E1F780E4A5
:1039B00090E0A0E0B0E08BA79CA7ADA7BEA70E94B7
:1039C000D010982F81E0911101C080E0ED960FB6E4
:1039D000F894DEBF0FBECDBFDF91CF911F910F9145
:1039E000FF90EF90DF90CF90BF909F908F907F904F
:1039F0006F900895CF93DF93EC01898D9A8D009796
:103A000039F481E090E09B838A8380E090E00BC0F2
:103A1000FC01138212820E944514E98DFA8D2281E5
:103A20003381232B71F7DF91CF910895EF92FF92AD
:103A30000F931F93CF93DF93EC017B018A011B82CD
:103A40001A8288EE93E0A0E0B0E08C839D83AE8381
:103A5000BF8380E292E0998388838DE190E00E94A9
:103A6000E1309A8F898F009779F02DE1F701DC0121
:103A700001900D922A95E1F74CE050E0B801CE019B
:103A80000C960E941E33188EDF91CF911F910F91DB
:103A9000FF90EF9008952F923F924F925F926F9216
:103AA0007F928F929F92AF92BF92CF92DF92EF92CE
:103AB000FF920F931F93CF93DF931F921F92CDB767
:103AC000DEB7FC018581882309F4D8C0848180FF9A
:103AD000D5C021E02A834389548965897689828506
:103AE0009385A485B585481759076A077B0709F4AC
:103AF0001A826F013A81832F90E0DE0111964D0109
:103B00003F01B6E06B0E711C892B09F47CC0D60115
:103B10001A964D915D916D917C911D975A01B1E07E
:103B2000BB22F60125811A012B0189E056944794A6
:103B3000379427948A95D1F7838D948D223061F440
:103B4000FC01828D938DA48DB58DBC01CD01620DDC
:103B5000731D841D951D44C0DC0114961C911150E9
:103B60001221A114B104C9F4111117C0452B462B21
:103B7000472B51F4F6018789908DA18DB28D8683F4
:103B80009783A087B18709C0468157816085718579
:103B9000930146DD882309F471C0F601238D348D2D
:103BA00086819781A085B1850297A109B109AC01F1
:103BB000BD01F901058404C0440F551F661F771F1E
:103BC0000A94D2F786859785A089B189840F951FBD
:103BD000A61FB71FBC01CD01610F711D811D911D75
:103BE000D60114962C9126FF14C000910302109167
:103BF00004022091050230910602601771078207C6
:103C0000930751F506C0FA81FF23C1F1898190E045
:103C100037C040E00E940911882381F1F501ED5978
:103C2000FA4FD401CF010196E817F90719F0219155
:103C30002D93FACFEFEF8E1A9E0AF60182859385B7
:103C4000A485B5850196A11DB11D82879387A487A0
:103C5000B58780E090E058CF740101E010E0950155
:103C6000AB01BC0180916307909164070E94E40F4F
:103C7000882321F0BFEF8B1A9B0ADFCF8FEF9FEFD6
:103C80000F900F90DF91CF911F910F91FF90EF90C8
:103C9000DF90CF90BF90AF909F908F907F906F906C
:103CA0005F904F903F902F900895FC01818D928DF1
:103CB000009709F0F0CE8FEF9FEF08950F931F93B9
:103CC000CF93DF93FC01818D928D0097B1F0EF01CE
:103CD000E2DE8C010F3F8FEF180791F0898D9A8DEE
:103CE000FC01428553856485758541505109610900
:103CF00071090E94960EC80105C080E090E002C0E4
:103D00008FEF9FEFDF91CF911F910F910895CF9388
:103D1000DF93EC01E8A1F9A190818FA5892B808325
:103D2000EE8DFF8D90818DA5809589238083ECA1F8
:103D3000FDA190818EA5809589238083CE010E946C
:103D40004D0AECA1FDA190818EA5892B8083DF9186
:103D5000CF910895CF93DF93EC01E8A1F9A1908171
:103D60008FA5809589238083EE8DFF8D90818DA511
:103D7000809589238083ECA1FDA190818EA58095FB
:103D800089238083CE010E944D0AECA1FDA1908180
:103D90008EA5892B8083DF91CF910895611102C098
:103DA00060E201C061E2D6CF1F93CF93DF93EC01B5
:103DB000162F66E3CFDF612F63706D8B623041F0A9
:103DC000633081F0613011F068E403C068E20BC039
:103DD00068E8CE019CDF80EF90E09987888780E4D7
:103DE00091E009C068EECE0192DF80E491E099870E
:103DF000888780EF90E09B878A87DF91CF911F9122
:103E00000895CF92DF92FF920F931F93CF93DF938A
:103E100000D01F921F92CDB7DEB76C01F62E6AE27A
:103E20002B833A834D835C83798394DF7981672F79
:103E3000C6016DDF6F2DC6016ADF3A81632FC601AF
:103E400066DF2B81622FC60162DF6BE2C60182DF73
:103E50005C81652FC6015BDF4D81642FC60157DF92
:103E6000612FC60154DF602FC60151DF6CE2C6012D
:103E70000F900F900F900F900F90DF91CF911F91A7
:103E80000F91FF90DF90CF9065CFAF92BF92CF920E
:103E9000DF92EF92FF920F931F93CF93DF93EC018A
:103EA0005901680128853985621773070CF04DC0E8
:103EB0008A859B85481759070CF047C0FB01EA0D1E
:103EC000FB1D2E173F071CF45901A61AB70A9A01C9
:103ED0002C0D3D1D821793071CF46C01C41AD50AE2
:103EE0008A010C0D1D1D015011099B012A0D3B1D5E
:103EF00021503109CE0185DFE8A1F9A190818FA57C
:103F0000892B8083ECA1FDA190818EA580958923CA
:103F100080831C141D049CF48501101611065CF4AA
:103F20006F2DCE010E944D0A6E2DCE010E944D0ACA
:103F300001501109F2CF81E0C81AD108EACFECA1F3
:103F4000FDA190818EA5892B8083DF91CF911F9158
:103F50000F91FF90EF90DF90CF90BF90AF900895BA
:103F6000CF92DF92EF92FF920F931F93CF93DF9345
:103F7000EC017901D02EC12E8885998568177907C3
:103F8000C4F52A853B85421753079CF59B012E0DEE
:103F90003F1D821793071CF47C01E61AF70A9B0168
:103FA0002E0D3F1D215031098A01CE012ADFE8A1E3
:103FB000F9A190818FA5892B8083ECA1FDA190812F
:103FC0008EA5809589238083E114F10461F06C2D26
:103FD000CE010E944D0A6D2DCE010E944D0A81E056
:103FE000E81AF108F1CFECA1FDA190818EA5892BF3
:103FF0008083DF91CF911F910F91FF90EF90DF9021
:10400000CF900895CF92DF92EF92FF920F931F937C
:10401000CF93DF93EC017901D02EC12E888599854D
:1040200068177907C4F58A859B85481759079CF559
:104030009A012E0D3F1D821793071CF47C01E41A90
:10404000F50A8A010E0D1F1D015011099B01CE01B9
:10405000D8DEE8A1F9A190818FA5892B8083ECA1FE
:10406000FDA190818EA5809589238083E114F104C0
:1040700061F06C2DCE010E944D0A6D2DCE010E9483
:104080004D0A81E0E81AF108F1CFECA1FDA1908181
:104090008EA5892B8083DF91CF911F910F91FF9087
:1040A000EF90DF90CF900895EF92FF920F931F93C0
:1040B000CF93DF93EC0177FD31C088859985681730
:1040C000790764F557FD2AC08A859B8548175907EB
:1040D0002CF5E32EF22E8A010F5F1F4F9B012F5FFD
:1040E0003F4FCE018EDEE8A1F9A190818FA5892BEB
:1040F0008083ECA1FDA190818EA58095892380838A
:104100006E2DCE010E944D0A6F2DCE010E944D0AE8
:10411000ECA1FDA190818EA5892B8083DF91CF91A9
:104120001F910F91FF90EF9008954F925F926F92C1
:104130007F928F929F92AF92BF92CF92DF92EF9237
:10414000FF92CF93DF93EC016A017B019A01AB01EF
:10415000C701B6010E94B330882319F06CE973E0FF
:104160001AC046015701E894B7F82FEF3FEF4FE729
:104170005FE7C501B4010E94B330811111C02FEF78
:104180003FEF4FE75FE7C501B4010E947C2E181690
:104190003CF460EA73E0CE010E94150D7C018DC0F5
:1041A0002FEF3FEF4FE75FE4C701B6010E94AF304A
:1041B00018161CF464EA73E0EECF2FEF3FEF4FE7E1
:1041C0005FECC701B6010E947C2E87FDF3CF20E093
:1041D00030E0A901C701B6010E947C2E87FF0EC006
:1041E000E881F9810190F081E02D6DE2CE01199511
:1041F0005C01F7FAF094F7F8F09402C0A12CB12C0E
:104200002AE037ED43EA5BE3C701B6010E94B22F13
:104210002B013C010E9483306B017C010E94802EA7
:104220009B01AC01C301B2010E94B12F2B013C01E3
:104230002AE0B701A601CE010E9452187C01EA0CC7
:10424000FB1CE881F9810190F081E02D6EE2CE0146
:104250001995E80EF91E20E030E040E251E4C30178
:10426000B2010E94E12E2B013C010E9483304B01E0
:10427000A12CB12C2AE0B501A401CE010E94521854
:10428000E80EF91EC501B4010E94802E9B01AC010D
:10429000C301B2010E94B12F20E030E040E251E4BE
:1042A0000E94E12E0E948330AB0160E070E02AE0C2
:1042B000CE010E945218E80EF91E67EC72E0CE01A2
:1042C0000E94150D8E0D9F1DDF91CF91FF90EF90F5
:1042D000DF90CF90BF90AF909F908F907F906F9026
:1042E0005F904F9008958F929F92AF92BF92CF921E
:1042F000DF92EF92FF920F931F93CF93DF93CDB78F
:10430000DEB7C754D1090FB6F894DEBF0FBECDBFDC
:104310005C0119A218A284E592E09F8F8E8F1BA2E8
:104320001C821B829A8389831E8200E010E06E014A
:104330008EE1C80ED11C8EE2E82E88E0F82E88248B
:1043400083949801F801E855FC4F80818F3211F475
:104350002F5F3F4FFE01FB9680E090E0D901A8550A
:10436000BC4F4C914F3249F0442339F001962F5FF6
:104370003F4F41938C30910589F7EBE3F0E0EC0F70
:10438000FD1FE80FF91F1082F901E855FC4F8081ED
:104390008F3211F42F5F3F4F8901F901E855FC4F2F
:1043A000992493948081811101C0912C20E030E008
:1043B000492D4825BE01655C7F4FC701F501199560
:1043C00081110AC0FEE2EF16F8E0FF0619F0C701FE
:1043D0000E94901280E02BC09920C9F021E0AE012C
:1043E000455C5F4FB701C6010E940D13982E8EE207
:1043F000E81688E0F806A9F0C7010E9490129920FB
:1044000049F39E2D8F2D7601C92ED82E9ACF9EE28C
:10441000E91698E0F90619F0C7010E94901281E0B0
:1044200006C09920B9F2FE0131967F01EACFC95B3F
:10443000DF4F0FB6F894DEBF0FBECDBFDF91CF9137
:104440001F910F91FF90EF90DF90CF90BF90AF90B2
:104450009F908F9008958F929F92AF92BF92CF922C
:10446000DF92EF92FF92CF93DF93C82F84E098E022
:104470009093640780936307CC2369F1C53010F0F3
:1044800080E00DC140E060E070E0CB010E940911C6
:104490008823B1F320E1C29FC00111248D5A9A4FA5
:1044A000FC01E254FE4F20812F7751F73C9640816A
:1044B000518162817381443651056105710500F3B4
:1044C0003497C080D180E280F380C114D104E1042C
:1044D000F10421F4D5CFC12CD12C760140E0C701E5
:1044E000B6010E940911882359F280916E059091BE
:1044F0006F058115924021F6A0917305AA2309F456
:10450000BFCF60917105709172056115710509F455
:10451000B7CF20917005222309F4B2CFA0932208CF
:104520002093140880E030E0E1E0F0E0C82FAF0114
:10453000082E02C0440F551F0A94E2F724173507CE
:1045400041F0982F8F5F983089F789E080931D089C
:1045500097CF80931D082091790530917A05211518
:10456000310519F040E050E008C0209187053091F6
:1045700088054091890550918A052093150830934C
:104580001608409317085093180846015701860EE5
:10459000971EA11CB11C8092230890922408A0921F
:1045A0002508B0922608E0917405F0917505F09306
:1045B0002908E0932808B0E00E94982F860E971EE5
:1045C000A81EB91E80922A0890922B08A0922C084F
:1045D000B0922D0885E0EE0FFF1F8A95E1F7E150BC
:1045E000FE4FEF2FFF27E6958E0E9F1EA11CB11CDC
:1045F00080921E0890921F08A0922008B092210875
:1046000020917605309177052115310521F0A9011A
:1046100060E070E008C0409183055091840560918E
:10462000850570918605D701C60188199909AA09DF
:10463000BB09840F951FA61FB71F04C0B695A79589
:1046400097958795CA95D2F78093190890931A0881
:10465000A0931B08B0931C08853F2FE09207A1058B
:10466000B10510F48CE018C0853F9F4FA105B1053E
:1046700010F480E111C080918F0590919005A09178
:104680009105B091920580932A0890932B08A093EE
:104690002C08B0932D0880E28093270881E0DF91F9
:1046A000CF91FF90EF90DF90CF90BF90AF909F9011
:1046B0008F900895CF93DF93CDB7DEB7C257D1095E
:1046C0000FB6F894DEBF0FBECDBF789484B582607C
:1046D00084BD84B5816084BD85B5826085BD85B5A6
:1046E000816085BD80916E00816080936E00109224
:1046F000810080918100826080938100809181009F
:10470000816080938100809180008160809380002F
:104710008091B10084608093B1008091B00081608D
:104720008093B0008091910082608093910080918D
:1047300091008160809391008091900081608093CE
:1047400090008091A10082608093A1008091A100DF
:1047500081608093A1008091A00081608093A0007F
:1047600080912101826080932101809121018160EB
:1047700080932101809120018160809320018091AC
:104780007A00846080937A0080917A0082608093BE
:104790007A0080917A00816080937A0080917A001B
:1047A000806880937A001092C1001092AD0310923D
:1047B000AC031092F803109219041092F60381E0F2
:1047C0008093F5031092D00361E084E10E945219B6
:1047D00061E085E10E9452198091B9008E7F80933B
:1047E000B9008091B9008D7F8093B90088E48093EF
:1047F000B80085E48093BC00E0917507F0917607DE
:1048000012E01083E0917107F09172071082E0913D
:104810007307F09174078FEC808310927D07E0910D
:104820007907F0917A0786E08083E0917707F0912D
:104830007807808180618083E0917707F091780725
:10484000808188608083E0917707F091780780818C
:1048500080688083E0917707F091780780818F7D71
:10486000808361E084E00E9481198CE080930202E1
:104870001093010283E0809300028EE0EDE0F2E00D
:10488000DE01119601900D928A95E1F77E0123E0F9
:10489000E20EF11C11E0F701619171917F0180E05E
:1048A00090E00E94802E9B01AC0160E074E284E7FE
:1048B0009BE40E9416309B01AC0160E070E080E850
:1048C0009FE30E9416309B01AC016FE672E183E822
:1048D00098E30E9416300E947E304B015C01F2E0AA
:1048E0008F1A9108A108B1082DEF82162FEF9206BA
:1048F000A104B10408F423C41F5F173061F66230CD
:1049000071058105910578F161157105E1E08E076A
:10491000910548F5112339F11092800028E0209389
:10492000810020918100122B1093810070938900E7
:104930006093880080916F00826080936F0061E0D7
:10494000809102020E94811960E0809101020E9420
:1049500081191091000261E0812F0E94811960E0AD
:10496000812F0E9452198091AF03811105C081E00F
:104970008093AF031092AE0361E0809181080E94A2
:10498000811960E0809181080E94521961E0809154
:1049900080080E94811961E080917F080E9481193E
:1049A00020917F0830E0F901ED55FE4FE491F0E0F1
:1049B000EE0FFF1FE757FE4F8591949190937E086D
:1049C00080937D084091800850E0FA01ED55FE4F3C
:1049D0008491E82FF0E0EE0FFF1FE757FE4F85911F
:1049E000949190937A0880937908F901ED5BFE4FDA
:1049F000E491E0938708FA01ED5BFE4FE491E093C8
:104A0000880880917408882379F00E947C0A8CB50C
:104A10008C7F8CBD8DB581608DBD8CB58F7D8CBD3F
:104A20008CB5837F8CBD4EC061E0809184080E946C
:104A3000811961E0809182080E94811960E0809173
:104A400083080E9481198091840890E0FC01ED5553
:104A5000FE4FE491F0E0EE0FFF1FE757FE4FA591E8
:104A6000B491B0937808A09377082091820830E041
:104A7000F901ED55FE4FE491F0E0EE0FFF1FE7570F
:104A8000FE4F459154915093760840937508FC0170
:104A9000ED5BFE4F849180938608F901ED5BFE4F3C
:104AA000E491E09385089C91E82FE095E923EC934D
:104AB000E0917508F0917608908180918508809545
:104AC0008923808361E0809181080E94521965E00A
:104AD00070E080E090E00E94E21960E0809181083F
:104AE0000E94521964E170E080E090E00E94E219B7
:104AF00061E0809181080E94521966E970E080E0CF
:104B000090E00E94E2196FEE89E598E023D963E016
:104B100089E598E0FCD860E889E598E0F8D862E09B
:104B200089E598E0F4D86FEC89E598E013D960E066
:104B300089E598E0ECD861EC89E598E0E8D860E395
:104B400089E598E0E4D86DEE89E598E003D964E65C
:104B500089E598E0DCD863E089E598E0D8D862E19F
:104B600089E598E0D4D861E889E598E0D0D868EE86
:104B700089E598E0EFD865E889E598E0C8D860E075
:104B800089E598E0C4D868E789E598E0C0D86BEC7F
:104B900089E598E0DFD869E389E598E0B8D86CE268
:104BA00089E598E0B4D860E089E598E0B0D864E39E
:104BB00089E598E0ACD862E089E598E0A8D867EF8D
:104BC00089E598E0C7D860E289E598E0A0D86AEE68
:104BD00089E598E0BFD860E089E598E098D860E082
:104BE00089E598E094D860EC89E598E0B3D863E271
:104BF00089E598E08CD861EC89E598E0ABD860E174
:104C000089E598E084D865EC89E598E0A3D86EE35F
:104C100089E598E07CD868E289E598E078D867EC87
:104C200089E598E097D866E889E598E070D866E36A
:104C300089E598E08FD868E489E598E068D86AE368
:104C400089E598E087D865E589E598E060D861EB6B
:104C500089E598E07FD860E089E598E058D868E178
:104C600089E598E054D866EB89E598E073D868E068
:104C700089E598E04CD862E889E598E048D867E291
:104C800089E598E044D862EF89E598E063D860E070
:104C900089E598E03CD866E289E598E05BD861E078
:104CA00089E598E034D860EE89E598E053D86FE064
:104CB00089E598E02CD861E389E598E028D86BE293
:104CC00089E598E024D86CE089E598E020D86EE08A
:104CD00089E598E01CD868E089E598E018D86EE48A
:104CE00089E598E014D861EF89E598E010D867E38A
:104CF00089E598E00CD867E089E598E008D860E19C
:104D000089E598E004D863E089E598E000D86EE092
:104D100089E598E00E94871E69E089E598E00E9495
:104D2000871E60E089E598E00E94871E61EE89E5B4
:104D300098E010D860E089E598E00E94871E6EE058
:104D400089E598E00E94871E64E189E598E00E9469
:104D5000871E63E089E598E00E94871E61E189E58E
:104D600098E00E94871E67E089E598E00E94871E10
:104D700061E389E598E00E94871E61EC89E598E08F
:104D80000E94871E68E489E598E00E94871E68E01B
:104D900089E598E00E94871E6FE089E598E00E940F
:104DA000871E6CE089E598E00E94871E61E389E533
:104DB00098E00E94871E66E389E598E00E94871EBE
:104DC0006FE089E598E00E94871E61E189E598E03F
:104DD0000E94AA1E68E770E080E090E00E94E2195D
:104DE00069E289E598E00E94AA1E68EB72E085E618
:104DF00097E00E949B180E94BD196B017C0160E046
:104E000070E089E598E00E94CB1B60E078EF89E5CF
:104E100098E00E94CB1B60EE77E089E598E00E9465
:104E2000CB1B6FE170E089E598E00E94CB1B60E04E
:104E300070E089E598E00E94CB1B0E94BD19AB0190
:104E4000BC014C195D096E097F092AE085E697E0EF
:104E50000E94521867EC72E085E697E00E94150DFB
:104E600060E070E089E598E00E94CB1B8FEF9FEF38
:104E700090936C0880936B0890936A0880936908FC
:104E800082E080936D0810920F0810920D08109226
:104E90000A081092090887E0809308080E941A1AED
:104EA0008B0161E0809108080E94811961E0809186
:104EB00008080E9452190E947C0A82E58093020829
:104EC0001092030880910208909103080E94790AC9
:104ED0007AE0F72E8FEF0E944E0FFA94F110FACF7E
:104EE0000E94780A84E098E00E942C0F20E030E0D5
:104EF000A90160E084E098E00E94890FF82E809379
:104F00000E08E1E08E1749F00E941A1A601B710B1F
:104F1000613D774058F381E056C02AEA31E040E035
:104F200050E068E084E098E00E94890F82FF03C0AF
:104F3000F0920F0810C064E0F62E0E94550F809387
:104F40000E08FA94F110F9CF8A3A11F082E03BC0D2
:104F500082E080930F0880910F08823021F0C12CED
:104F6000D12C760105C0C12CD12CE12C50E4F52EBA
:104F700020E030E0A90167E384E098E00E94890F17
:104F8000A701960169E284E098E00E94890F80936E
:104F90000E08882349F00E941A1A601B710B613DAC
:104FA000774030F388E00FC080910F08823001F520
:104FB00020E030E0A9016AE384E098E00E94890FD4
:104FC000882341F086E08093090884E098E00E94FD
:104FD000410F8BC00E94550F807C803C19F483E008
:104FE00080930F080E94550F0E94550F0E94550F85
:104FF00084E098E00E94410F80E5809302081092BF
:10500000030881E028DA882329F080913308882377
:1050100039F06BC080E01FDA882309F466C0F5CF51
:1050200080912708803109F582E08093330810923F
:10503000450810924608109247081092480880913F
:10504000280890912908A0E0B0E045E0880F991F5A
:10505000AA1FBB1F4A95D1F780934108909342083D
:10506000A0934308B09344081DC08032F1F583E05B
:105070008093330840912A0850912B0860912C08A6
:1050800070912D0840934508509346086093470857
:105090007093480821E438E080E198E00E942D0EEA
:1050A000882319F180E198E090934A088093490899
:1050B00081E08093320810923408109235081092E3
:1050C000360810923708109238081092390810925A
:1050D0003A0810923B0810923C0810923D0810923A
:1050E0003E0810923F081092400800E411E082ED63
:1050F000282E83E0382E94E5E92E92E0F92E28EE52
:10510000822E23E0922EA12CB12C30E2C32E32E06D
:10511000D32E0E941A1A2B013C018091CF038111DA
:1051200012C00E941A1ADC01CB0184199509A60944
:10513000B70980369A4EA105B10578F304C0163040
:1051400009F0E8CB10CC8091CF038091CF03882366
:1051500021F08091CF0381112CC06AE974E0CE0167
:10516000CB960E94DB176CE3CE01CB960E94BD1755
:105170003C016AEC72E0CE0101960E94DB17BE0191
:105180006F5F7F4FCE01CB960E94A317AC014D5F9E
:105190005F4F9301BE01655C7F4FCE014E960E942A
:1051A000EF178E8D9F8D0097D9F4412C512C320131
:1051B0001AC08091CE03835090916400891710F437
:1051C000809364004091640050E061EB73E08AE9F1
:1051D00094E00E9403331092CF038091CE03BDCFA1
:1051E000C7D32B013C01CE014E960E94D617CE01AB
:1051F00001960E94D617CE01CB960E94D6174092F8
:1052000096045092970460929804709299046AE907
:1052100074E0CE01CB960E94DB176AE3CE01CB96F9
:105220000E94BD173C016EEC72E0CE0101960E9417
:10523000DB17BE016F5F7F4FCE01CB960E94A31795
:10524000AC014D5F5F4F9301BE01655C7F4FCE01A6
:105250004E960E94EF178E8D9F8D009721F08BD375
:105260002B013C0103C0412C512C3201CE014E9642
:105270000E94D617CE0101960E94D617CE01CB967A
:105280000E94D617C301B2013DD56093920470937A
:10529000930480939404909395046AE974E0CE019A
:1052A000CB960E94DB176EE3CE01CB960E94BD1712
:1052B0003C0162ED72E0CE0101960E94DB17BE0157
:1052C0006F5F7F4FCE01CB960E94A317AC014D5F5D
:1052D0005F4F9301BE01655C7F4FCE014E960E94E9
:1052E000EF178E8D9F8D009721F045D32B013C0148
:1052F00003C0412C512C3201CE014E960E94D6178C
:10530000CE0101960E94D617CE01CB960E94D617E9
:10531000C301B201F7D460938E0470938F0480931D
:105320009004909391046AE974E0CE01CB960E94B8
:10533000DB176BE3CE01CB960E94BD173C0166EDF7
:1053400072E0CE0101960E94DB17BE016F5F7F4FB6
:10535000CE01CB960E94A317AC014D5F5F4F930126
:10536000BE01655C7F4FCE014E960E94EF178E8D79
:105370009F8D009721F0FCD22B013C0103C0412CF2
:10538000512C3201CE014E960E94D617CE010196C5
:105390000E94D617CE01CB960E94D61740928A045F
:1053A00050928B0460928C0470928D046AE974E0D0
:1053B000CE01CB960E94DB176FE3CE01CB960E9405
:1053C000BD173C016AED72E0CE0101960E94DB1729
:1053D000BE016F5F7F4FCE01CB960E94A317AC0139
:1053E0004D5F5F4F9301BE01655C7F4FCE014E96CE
:1053F0000E94EF178E8D9F8D009721F0BCD22B015C
:105400003C0103C0412C512C3201CE014E960E942A
:10541000D617CE0101960E94D617CE01CB960E94D8
:10542000D617C301B2016ED46093860470938704CB
:1054300080938804909389041092660810926508FE
:1054400010926808109267086EED72E089E598E0A6
:105450000E94150D67EC72E089E598E00E94150D39
:105460006BEF72E089E598E00E949B1840919604EA
:1054700050919704609198047091990489E598E09F
:105480000E9495206AE073E089E598E00E949B18ED
:10549000409192045091930460919404709195040A
:1054A00089E598E00E94952066E173E089E598E03F
:1054B0000E949B1840918E0450918F04609190043B
:1054C0007091910489E598E00E94952066E273E06E
:1054D00089E598E00E949B1840918A0450918B04C2
:1054E00060918C0470918D0489E598E00E9495206C
:1054F00068E373E089E598E00E949B184091860478
:1055000050918704609188047091890489E598E03E
:105510000E94952080917B00877F80937B00009381
:105520007C0080917A00806480937A0080917A0078
:1055300086FDFCCF609178008091790070E0782B37
:10554000072E000C880B990BDDD320E030E040E201
:1055500051EC37D420E030EC4FE754E467D560934A
:105560008204709383048093840490938504209133
:105570008A0430918B0440918C0450918D04BCD3EB
:105580009091800487FF0CC010928104992319F038
:1055900010937F0402C010927F04109280040BC00D
:1055A00010938104911103C010937F0402C01092E4
:1055B0007F041093800480917F04882309F476C0CF
:1055C00080918104882341F063E573E08BE194E0EE
:1055D0000E94173361E007C061E773E08BE194E05C
:1055E0000E94173360E084E00E9452191093F70381
:1055F00081EC80931A041092F803109219046BE165
:1056000074E08DE498E00E94150D9091190480914A
:105610001A04913208F044C02091F6032111FCCF06
:1056200022E02093F6031093F5032FEF2093F40369
:105630001092F3039093F203A9EFB3E0E2EDF3E0ED
:105640002E2F2219291718F42D912193F9CF10929A
:10565000D1039091D103880F892B8093D10380913E
:10566000D003813061F41092D0038091D1038093F4
:10567000BB008091BC0083FDF8CF85EC01C085EEB6
:105680008093BC008091F6038230E1F38091F403B3
:105690008F3F31F08091F403803211F08091F40358
:1056A0001092F803109219041092F70381EF9BE116
:1056B0000E947321811104C08EE19CE10E9473213C
:1056C0006EE278E0CE0101960E94DF15BE016F5FA9
:1056D0007F4FCE01CB960E94DF1519A218A2FF8E34
:1056E000EE8E1BA221968FAD2197811116C06C966C
:1056F0001FAE1EAE6C97A0968CAE9DAEAEAEBFAE8A
:10570000A0976A96DFAECEAE6A97E3961FAE1EAE46
:10571000E397A5961FAEA59735C0825023E140E9D7
:1057200053E0823048F46EE278E0CE014E960E945B
:105730000D1381110EC0DBCFBE01655C7F4FCE0122
:105740004E960E940D13882391F2CE01CB960E94B3
:10575000901249A95AA96BA97CA9CE014E960E9424
:10576000960EBE01625E7F4FCE0101960E94DF154C
:1057700040E953E0BE016F5F7F4FCE01885A9F4FD3
:105780000E94161D6BEF72E0CE01885A9F4F0E9457
:105790009B184091960450919704609198047091E1
:1057A0009904CE01885A9F4F0E9495206AE073E0C9
:1057B000CE01885A9F4F0E949B18409192045091AD
:1057C00093046091940470919504CE01885A9F4F80
:1057D0000E94952066E173E0CE01885A9F4F0E9497
:1057E0009B1840918E0450918F04609190047091A9
:1057F0009104CE01885A9F4F0E94952066E273E083
:10580000CE01885A9F4F0E949B1840918A04509164
:105810008B0460918C0470918D04CE01885A9F4F47
:105820000E94952068E373E0CE01885A9F4F0E9442
:105830009B18409186045091870460918804709170
:105840008904CE01885A9F4F0E949520E3968EAD21
:105850009FADE397009739F00E949012E3968EADCA
:105860009FADE39743D50E94291753CCE5E6F7E0B7
:105870001382128288EE93E0A0E0B0E084839583E7
:10588000A683B78322E432E03183208325EC30E025
:105890003587248724EC30E03787268720EC30E0FA
:1058A000318B208B21EC30E0338B228B22EC30E0EB
:1058B000358B248B26EC30E0378B268B118E128EA5
:1058C000138E148EE2E0F8E020E520831182E4E0FC
:1058D000F8E0158216821186138642E050E060E0FF
:1058E00070E0448755876687778713A215A614A6AC
:1058F00024E532E033A722A717A6EDE4F8E01382EF
:10590000128284839583A683B78380E692E0918395
:105910008083E9E5F8E01382128220EF30E03583DE
:10592000248380E491E0978386833187208793875F
:105930008287158A158614861786168681E0848BE1
:105940002FEF3FEF338B228B318B208B868B178A87
:10595000118E108E20E932E0318320839AE096A3E5
:1059600099E097A398E090A7838F13A611A60895B6
:10597000662777273BC01F93FC0199278827BC0126
:10598000E89411911032E9F3193010F01E30C8F389
:105990001B3249F01D3241F4689405C012D0610FEA
:1059A000711D811D911D119110531A30B8F33EF4F1
:1059B00090958095709561957F4F8F4F9F4F1F9168
:1059C0000895592F482F372F262F660F771F881FCE
:1059D000991F660F771F881F991F620F731F841FFF
:1059E000951F660F771F881F991F08956F927F92EA
:1059F0008F929F92AF92BF92CF92DF92EF92FF92DF
:105A00000F931F93CF93DF93EC017B016115710519
:105A100019F0DB018D939C938E010F5F1F4F7880EF
:105A2000872D90E049D1892B11F0E801F5CFBDE237
:105A30007B1205C00F5F1F4F7980C1E008C0EBE209
:105A40007E1204C08E010E5F1F4F7980C0E0680196
:105A5000F1E0CF1AD10843E050E060E171E0C60107
:105A600033D1892BE9F4680122E0C20ED11C45E054
:105A700050E06BE071E0C60127D1892B21F4680169
:105A800087E0C80ED11CE114F10419F0D701CD92C2
:105A9000DC92C111F9C060E070E080E89FE7FDC0D2
:105AA00043E050E068E071E0C6010ED1892B51F46B
:105AB000E114F10409F4EDC00E5F1F4FF7011183EB
:105AC0000083E7C0680160E070E0CB0100E010E017
:105AD000F601D0EDD70DDA3050F52C2F2260622E72
