:100000000C94F8000C9420010C9420010C94200115
:100010000C9420010C9420010C9420010C942001DC
:100020000C9420010C9420010C9420010C94740574
:100030000C9420010C9420010C9420010C942001BC
:100040000C942A050C9420010C948C040C946604E6
:100050000C9420010C9420010C9420010C9420019C
:100060000C94E5050C9420014E414E494E495459DB
:10007000494E46CDCCCC3D0AD7233C17B7D1387773
:10008000CC2B329595E6241FB14F0A000020410089
:1000900000C84200401C4620BCBE4CCA1B0E5AAED3
:1000A000C59D7400407A10F35A00A0724E180900E2
:1000B00010A5D4E80000E87648170000E40B5402CD
:1000C0000000CA9A3B000000E1F505000080969808
:1000D00000000040420F000000A086010000001058
:1000E0002700000000E8030000000064000000009A
:1000F000000A00000000000100000000002C76D87B
:1001000088DC674F0823DFC1DFAE59E1B1B796E560
:10011000E3E453C63AE651997696E8E6C28426EBC4
:10012000898C9B62ED407C6FFCEFBC9C9F40F2BAD7
:10013000A56FA5F490055A2AF75C936B6CF9676D6F
:10014000C11BFCE0E40D47FEF520E6B500D0ED90C4
:100150002E0300943577050080841E080000204E91
:100160000A000000C80C333333330F986E1283112A
:1001700041EF8D2114893BE65516CFFEE6DB18D101
:10018000844B381BF77C1D901DA4BBE424203284D3
:10019000725E228100C9F124ECA1E53D2700000038
:1001A00000240027002A0000000000250028002B62
:1001B0000004040404040404040202020202020310
:1001C000030303030301020408102040800102041A
:1001D000081020010204081020000000080002019D
:1001E0000000030407000000000000000000260ECD
:1001F00011241FBECFEFD8E0DEBFCDBF23E0A6E4C1
:10020000B2E001C01D92A53FB207E1F712E0A0E005
:10021000B1E0EEE3FFE202C005900D92A634B10713
:10022000D9F710E0C8EFD0E004C02197FE010E948A
:100230005C15C73FD107C9F70E9438080C949D1779
:100240000C940000CF92DF92EF92FF920F931F93D6
:10025000CF93DF936C017A018B01C0E0D0E0CE1523
:10026000DF0589F0D8016D918D01D601ED91FC91EA
:100270000190F081E02DC6010995892B11F47E01D2
:1002800002C02196ECCFC701DF91CF911F910F9152
:10029000FF90EF90DF90CF900895FC01538D448D37
:1002A000252F30E0842F90E0821B930B541710F021
:1002B000CF96089501970895FC01918D828D98172E
:1002C00061F0828DDF01A80FB11D5D968C91928D3A
:1002D0009F5F9F73928F90E008958FEF9FEF089537
:1002E000FC01918D828D981731F0828DE80FF11D00
:1002F000858D90E008958FEF9FEF0895FC01918D1B
:10030000228D892F90E0805C9F4F821B91098F7313
:100310009927089586E493E00E947E0121E0892BCD
:1003200009F420E0822F0895FC01848DDF01A80FDD
:10033000B11DA35ABF4F2C91848D90E001968F730D
:100340009927848FA689B7892C93A089B1898C912C
:1003500080648C93938D848D981306C00288F389F2
:10036000E02D80818F7D80830895EF92FF920F931F
:100370001F93CF93DF93EC0181E0888F9B8D8C8D51
:10038000981305C0E889F989808185FD24C0F62E7F
:100390000B8D10E00F5F1F4F0F731127E02E8C8D18
:1003A000E8120CC00FB607FCFACFE889F989808102
:1003B00085FFF5CFCE010E949401F1CF8B8DFE0118
:1003C000E80FF11DE35AFF4FF0820B8FEA89FB899A
:1003D0008081806207C0EE89FF896083E889F9899E
:1003E00080818064808381E090E0DF91CF911F91D4
:1003F0000F91FF90EF900895CF93DF93EC01888DDC
:100400008823C9F0EA89FB89808185FD05C0A88918
:10041000B9898C9186FD0FC00FB607FCF5CF80819E
:1004200085FFF2CFA889B9898C9185FFEDCFCE01E8
:100430000E949401E7CFDF91CF91089580E090E092
:10044000892B29F00E948A0181110C9400000895E3
:10045000833081F028F4813099F08230A1F0089542
:100460008730A9F08830B9F08430D1F480918000D1
:100470008F7D03C0809180008F77809380000895E6
:1004800084B58F7702C084B58F7D84BD0895809137
:10049000B0008F7703C08091B0008F7D8093B00053
:1004A000089585ED8093BC008091BC0084FDFCCF55
:1004B0001092C202089540916802262F30E0240F66
:1004C000311D21323105DCF42091C2022430C9F4FF
:1004D000FC0180E090E0861758F430916802219189
:1004E000DC01AA5BBD4FA30FB11D2C930196F3CF86
:1004F00080916802680F6093680280E0089581E04F
:10050000089582E008950895E091C4028091C302A5
:10051000E81730F4F0E0EB53FD4F808190E0089550
:100520008FEF9FEF08959091C4028091C3029817B6
:1005300050F4E92FF0E0EB53FD4F208130E09F5F56
:100540009093C40202C02FEF3FEFC901089580913C
:10055000C30290E02091C402821B91090895CF93B9
:10056000DF9300D0CDB7DEB7CB01642F49835A8328
:100570000E945B024981842F5A81952F0F900F9022
:10058000DF91CF910895CF93DF931F92CDB7DEB760
:10059000698361E0CE0101960E945B0281E090E0F8
:1005A0000F90DF91CF910895089580E090E0089535
:1005B0000F931F93CF93DF93EC018881998100976C
:1005C00029F02A813B812617370788F48B016F5F5A
:1005D0007F4F0E948F16009761F0998388831B8359
:1005E0000A832C813D81232B11F4FC01108281E0D0
:1005F00001C080E0DF91CF911F910F910895EF929C
:10060000FF920F931F93CF93DF93FC0124813581D9
:100610006115710511F480E019C041155105A9F06B
:100620007B01EC018A01020F131FB8010E94D8025E
:10063000882389F3288139818C819D81B701820FBC
:10064000931F0E946D171D830C8381E0DF91CF9172
:100650001F910F91FF90EF900895CF93DF93EC01DE
:1006600088819981009711F00E94F71519821882EC
:100670001D821C821B821A82DF91CF910895CF9335
:10068000DF93FC0124813581232B71F0FB01DC0118
:10069000CD91DC9160817181CE010E94831700971A
:1006A00019F08C1B9D0B02C08FEF9FEFDF91CF9154
:1006B0000895CF93DF93FC0124813581232B69F0CA
:1006C000C081D181062E000C770BCE010E946217EB
:1006D000009719F08C1B9D0B02C08FEF9FEFDF91ED
:1006E000CF910895CF93DF93EC016115710561F00F
:1006F000FB0101900020E9F73197AF01461B570B32
:100700000E94FF02811103C0CE010E942D03CE0181
:10071000DF91CF910895CF93DF93EC01FB014481EA
:100720005581608171810E94FF02811103C0CE0159
:100730000E942D03CE01DF91CF910895EF92FF9299
:100740000F931F93CF93DF93EC017B018A01BA01D2
:100750000E94D802811104C0CE010E942D0307C05F
:100760001D830C83B701888199810E946D17CE018A
:10077000DF91CF911F910F91FF90EF900895CF934C
:10078000DF93EC016115710559F0FB010190002028
:10079000E9F73197AF01461B570B0E949E0302C039
:1007A0000E942D03CE01DF91CF910895FC0180813D
:1007B00091810C94F715EF92FF920F931F93CF93B3
:1007C000DF93CDB7DEB7A1970FB6F894DEBF0FBEAB
:1007D000CDBF7C01CB01BA01F701118210821382D7
:1007E00012821582148242E0420F8E010F5F1F4F6A
:1007F0000E945F0EBC01C7010E94BF03A1960FB605
:10080000F894DEBF0FBECDBFDF91CF911F910F9146
:10081000FF90EF900895FC011182108213821282E2
:10082000158214826115710551F0FB0101900020C1
:10083000E9F73197AF01461B570B0C949E030895BF
:10084000BF92CF92DF92EF92FF920F931F93CF93BD
:10085000DF937C016B018A01E9012417350720F43D
:10086000812F8901C42FD82F65EA71E0C7010E944A
:100870000B04D60114968D919C91159708171907B2
:10088000D0F48C179D0708F4EC01D601ED91FC9192
:100890001197EC0FFD1FB08010824D915C91BA0151
:1008A000600F711FC7010E94BF03D601ED91FC913B
:1008B000EC0FFD1FB082C701DF91CF911F910F9107
:1008C000FF90EF90DF90CF90BF9008951F920F920E
:1008D0000FB60F9211242F933F934F935F936F9313
:1008E0007F938F939F93AF93BF93EF93FF9386E490
:1008F00093E00E949401FF91EF91BF91AF919F917E
:100900008F917F916F915F914F913F912F910F90B8
:100910000FBE0F901F9018951F920F920FB60F9257
:1009200011242F938F939F93EF93FF93E09156039E
:10093000F09157038081E0915C03F0915D0382FDAB
:1009400012C0908180915F038F5F8F73209160034D
:10095000821751F0E0915F03F0E0EA5BFC4F958F66
:1009600080935F0301C08081FF91EF919F918F91F0
:100970002F910F900FBE0F901F9018951F93CF933C
:10098000DF93282F30E0F901E752FE4F8491F901FF
:10099000EB53FE4FD491F901EF54FE4FC491CC2399
:1009A000C9F0162F81110E942802EC2FF0E0EE0F03
:1009B000FF1FE955FE4FA591B4918FB7F89411111F
:1009C00005C09C91ED2FE095E92302C0EC91ED2B41
:1009D000EC938FBFDF91CF911F910895CF93DF9359
:1009E00090E0FC01EB53FE4F2491FC01EF54FE4FCD
:1009F0008491882361F190E0880F991FFC01E356F0
:100A0000FE4FC591D491FC01E955FE4FA591B491DB
:100A1000611109C09FB7F89488812095822388834B
:100A2000EC912E230BC0623061F49FB7F8943881AB
:100A3000822F809583238883EC912E2B2C939FBF4C
:100A400006C08FB7F894E8812E2B28838FBFDF91E3
:100A5000CF9108951F920F920FB60F9211242F93EA
:100A60003F938F939F93AF93BF9380919602909102
:100A70009702A0919802B09199023091950223E0DB
:100A8000230F2D3720F40196A11DB11D05C026E8C6
:100A9000230F0296A11DB11D20939502809396020B
:100AA00090939702A0939802B0939902809191023B
:100AB00090919202A0919302B09194020196A11D8F
:100AC000B11D8093910290939202A0939302B093F0
:100AD0009402BF91AF919F918F913F912F910F9071
:100AE0000FBE0F901F9018951F920F920FB60F9286
:100AF00011242F933F934F935F936F937F938F9323
:100B00009F93AF93BF93EF93FF938091E902882364
:100B100019F18091E50291E0980F9093E50281111F
:100B20001BC0E091E7028091E802E817E0F060E086
:100B3000809102010E94BE0460E0809101010E9448
:100B4000BE041092E90280918F029091900201966A
:100B50009093900280938F028091E502883020F17B
:100B60001092E50221C0F0E0ED5FFE4F9081809190
:100B7000E60221E0280F2093E60261E070E001C068
:100B8000660F8A95EAF76923809101010E94BE04ED
:100B90008091E602863000F31092E6028091E7022F
:100BA0008F5F8093E702D8CFFF91EF91BF91AF9114
:100BB0009F918F917F916F915F914F913F912F9175
:100BC0000F900FBE0F901F9018951F920F920FB6A7
:100BD0000F9211242F933F934F935F936F937F93C3
:100BE0008F939F93AF93BF93EF93FF938091B9003F
:100BF000887F803609F49CC068F5883209F45BC0B0
:100C000090F4803109F454C038F4882309F4F6C014
:100C1000883009F44DC0F6C0883109F44CC08032E8
:100C200009F45DC0EFC0803409F468C048F4803333
:100C300009F455C0883309F0E5C08093C002D8C0DC
:100C4000803509F44FC0883509F45DC0883409F057
:100C5000D9C0D6C0883909F4C7C0A8F4883709F4C8
:100C600067C038F4883609F463C0803709F460C07F
:100C7000C9C0883809F4B8C0803909F45FC0803829
:100C800009F0C0C05BC0803B09F486C038F4803AEC
:100C900009F466C0883A09F47FC0B4C0803C09F406
:100CA000A7C0883C09F4A4C0883B09F48AC0AAC044
:100CB0008091BD0210C09091BF028091BE02981732
:100CC00070F5E091BF0281E08E0F8093BF02F0E0EB
:100CD000E456FD4F80818093BB0085EC86C08093F5
:100CE000C0028EC0E091BF0281E08E0F8093BF02F0
:100CF0008091BB00F0E0E456FD4F80839091BF02ED
:100D00008091BE026EC0E091BF0281E08E0F8093A1
:100D1000BF028091BB00F0E0E456FD4F80838091DC
:100D2000C10281116DC081E08093BC0284EA61C080
:100D300083E08093C20210928C02CFCF80918C020C
:100D4000803208F051C0E0918C0281E08E0F8093D8
:100D50008C028091BB00F0E0E459FD4F8083BDCF51
:100D600085EC8093BC001092C20280918C0280328C
:100D700030F4E0918C02F0E0E459FD4F1082609174
:100D80008C0270E0E0916A02F0916B028CE692E0D6
:100D9000099510928C0236C084E08093C2021092B2
:100DA000690210926802E0916602F091670209956B
:100DB00080916802811105C081E0809368021092E1
:100DC0004602E091690281E08E0F80936902F0E0B3
:100DD000EA5BFD4F80818093BB0090916902809116
:100DE0006802981708F479CF85E88093BC000AC0A0
:100DF00085EC8093BC001092C20204C01092C00225
:100E00000E945102FF91EF91BF91AF919F918F91FD
:100E10007F916F915F914F913F912F910F900FBEF6
:100E20000F901F901895009769F0FC010190002029
:100E3000E9F73197AF01481B590BBC0186E493E0F9
:100E40000C94220180E090E008958F929F92AF92DF
:100E5000BF920F931F93CF93DF93CDB7DEB7A197C8
:100E60000FB6F894DEBF0FBECDBF19A2423008F412
:100E70004AE08E010F5D1F4F842E912CA12CB12CC6
:100E8000A50194010E943A15E62FB901CA0101504B
:100E90001109EA3014F4E05D01C0E95CD801EC937B
:100EA000232B242B252B61F7C8010E941307A19641
:100EB0000FB6F894DEBF0FBECDBFDF91CF911F916B
:100EC0000F91BF90AF909F908F900895E09146034F
:100ED000F09147030190F081E02D682F86E493E0C4
:100EE00009944F925F926F927F928F929F92AF92EE
:100EF000BF92CF92DF92EF92FF926B017C019B0138
:100F0000AC010E943515882319F08AE392E01AC0DB
:100F100046015701E894B7F82FEF3FEF4FE75FE73F
:100F2000C501B4010E943515811110C02FEF3FEFAC
:100F30004FE75FE7C501B4010E94A312181634F40D
:100F40008EE392E00E9413077C017FC02FEF3FEFFA
:100F50004FE75FE4C701B6010E94301518161CF474
:100F600082E492E0EFCF2FEF3FEF4FE75FECC70156
:100F7000B6010E94A31287FDF3CF20E030E0A90163
:100F8000C701B6010E94A31287FF09C08DE20E942B
:100F900066075C01F7FAF094F7F8F09402C0A12C10
:100FA000B12C2AE037ED43EA5BE3C701B6010E94AA
:100FB0001C142B013C010E9401156B017C010E9455
:100FC000A8129B01AC01C301B2010E941B142B01AA
:100FD0003C014AE0C701B6010E9425077C01EA0CEA
:100FE000FB1C8EE20E946607E80EF91E20E030E04E
:100FF00040E251E4C301B2010E9409132B013C01FC
:101000000E9401154B01A12CB12C4AE0C501B4018D
:101010000E942507E80EF91EC501B4010E94A8121E
:101020009B01AC01C301B2010E941B1420E030E01F
:1010300040E251E40E9409130E94011580E090E013
:101040004AE00E942507E80EF91E83EA91E00E941B
:1010500013078E0D9F1DFF90EF90DF90CF90BF90F4
:10106000AF909F908F907F906F905F904F9008957A
:10107000CF93DF93CDB7DEB7EC970FB6F894DEBF12
:101080000FBECDBF789484B5826084BD84B5816085
:1010900084BD85B5826085BD85B5816085BD809143
:1010A0006E00816080936E001092810080918100BB
:1010B00082608093810080918100816080938100B3
:1010C000809180008160809380008091B100846075
:1010D0008093B1008091B00081608093B0008091D6
:1010E0007A00846080937A0080917A008260809395
:1010F0007A0080917A00816080937A0080917A00F2
:10110000806880937A001092C1001092C4021092FD
:10111000C30210929B0210929A021092C20281E0C6
:101120008093C1021092BC0261E082E10E94BE0481
:1011300061E083E10E94BE048091B9008E7F8093BC
:10114000B9008091B9008D7F8093B90088E48093C5
:10115000B80085E48093BC00E0915603F0915703FA
:1011600092E09083E0915203F09153031082E0915A
:101170005403F09155038FEC808310925E03E0914D
:101180005A03F0915B0386E08083E0915803F0916D
:101190005903808180618083E0915803F091590365
:1011A000808188608083E0915803F09159038081A9
:1011B00080688083E0915803F091590380818F7D8E
:1011C00080838CE0809301019093000183E0809301
:1011D00002018EE0EDE4F1E0DE01119601900D9246
:1011E0008A95E1F77E0123E0E20EF11C11E0D701C0
:1011F0006D917D917D0180E090E00E94A8129B019D
:10120000AC0160E074E284E79BE40E9488149B01D7
:10121000AC0160E070E080E89FE30E9488149B01CD
:10122000AC016FE672E183E898E30E9488140E94A3
:10123000FA144B015C01B2E08B1A9108A108B108C5
:10124000EDEF8E16EFEF9E06A104B10408F4FAC488
:101250001F5F173061F6623071058105910578F1E5
:1012600061157105F1E08F07910548F5112339F1FA
:101270001092800028E02093810020918100122BA1
:1012800010938100709389006093880080916F00B3
:10129000826080936F0061E0809101010E94EE0402
:1012A00060E0809100010E94EE041091020161E073
:1012B000812F0E94EE0460E0812F0E94BE041E0177
:1012C000FDE22F0E311C2DB73EB73CAF2BAF109275
:1012D000420310924303109244031092450310926C
:1012E0003E0310923F03109240031092410310926C
:1012F0003A0310923B0310923C0310923D0310926C
:10130000360310923703109238031092390310926B
:10131000320310923303109234031092350310926B
:101320002E0310922F03109230031092310310926B
:101330002A0310922B0310922C0310922D0310926B
:10134000260310922703109228031092290310926B
:10135000220310922303109224031092250310926B
:101360001E0310921F03109220031092210350EBD2
:10137000452E512C612C712C11E005EECDB6DEB658
:101380008DB79EB7C2970FB6F8949EBF0FBE8DBFA4
:10139000ADB7BEB711967D018091C2028111FCCF1D
:1013A0001093C2021093C102BFEFB093C00210921B
:1013B000BF02EFE1E093BE021093BD022091BD0297
:1013C000C201880F991F822B8093BD028091BC02BD
:1013D000813071F41092BC028091BD028093BB00F9
:1013E0008091BC0083FDF8CF85EC8093BC0002C0E7
:1013F0000093BC008091C2028130E1F38091BF0272
:10140000803218F49090BF0202C080E2982EACE9BE
:10141000B2E0E5ECF2E08E2F25EC32E0821B89157C
:1014200018F48D918193F7CF1092C4029092C30269
:101430001092EB021092EA028091C4029816A1F079
:10144000A090EA02B090EB0283EE93E00E94930238
:10145000F701EA0DFB1D80833FEFA31AB30AB09298
:10146000EB02A092EA02E8CF80E991E00E94130724
:101470004AE0C301B2010E942507C7010E94130779
:1014800083EA91E00E9413070FB6F894DEBE0FBE08
:10149000CDBEF701ACEEB2E081918D9353E0AE3159
:1014A000B507D1F76CEE72E0CE0145960E940B04B1
:1014B0006CE3CE0145960E9459037C0164E172E021
:1014C000CE0101960E940B04BE016F5F7F4FCE01DB
:1014D00045960E943F03AC014D5F5F4F9701BE01EF
:1014E0006B5E7F4FCE010F960E9420048F859889F6
:1014F000009729F00E947F0E6B017C0103C0C12C74
:10150000D12C7601CE010F960E94D603CE01019612
:101510000E94D603CE0145960E94D603C0922603B0
:10152000D0922703E0922803F09229036CEE72E038
:10153000CE0145960E940B046BE3CE0145960E94B6
:1015400059037C016AE072E0CE0101960E940B040F
:10155000BE016F5F7F4FCE0145960E943F03AC01F5
:101560004D5F5F4F9701BE016B5E7F4FCE010F96BF
:101570000E9420048F859889009729F00E947F0E91
:101580006B017C0103C0C12CD12C7601CE010F96DA
:101590000E94D603CE0101960E94D603CE01459645
:1015A0000E94D603C0923E03D0923F03E0924003D4
:1015B000F09241036CEE72E0CE0145960E940B045E
:1015C0006FE3CE0145960E9459035C0166EA71E023
:1015D000CE0101960E940B04BE016F5F7F4FCE01CA
:1015E00045960E943F03AC014D5F5F4F9501BE01E0
:1015F0006B5E7F4FCE010F960E9420048F859889E5
:10160000009719F00E94830E03C060E070E0CB01E8
:101610000E94AA126BAB7CAB8DAB9EABCE010F963A
:101620000E94D603CE0101960E94D603CE014596B4
:101630000E94D6038BA99CA9ADA9BEA980933603AD
:1016400090933703A0933803B09339036CEE72E0A4
:10165000CE0145960E940B046EE3CE0145960E9492
:1016600059035C016FE072E0CE0101960E940B0409
:10167000BE016F5F7F4FCE0145960E943F03AC01D4
:101680004D5F5F4F9501BE016B5E7F4FCE010F96A0
:101690000E9420048F859889009719F00E94830E7C
:1016A00003C060E070E0CB010E94AA126FAB78AF7C
:1016B00089AF9AAFCE010F960E94D603CE01019654
:1016C0000E94D603CE0145960E94D6038FA998ADFD
:1016D000A9ADBAAD80932E0390932F03A09330034E
:1016E000B09331036CEE72E0CE0145960E940B047C
:1016F0006AE3CE0145960E9459035C0169E172E0FC
:10170000CE0101960E940B04BE016F5F7F4FCE0198
:1017100045960E943F03AC014D5F5F4F9501BE01AE
:101720006B5E7F4FCE010F960E9420048F859889B3
:10173000009719F00E94830E03C060E070E0CB01B7
:101740000E94AA124B015C01CE010F960E94D603A3
:10175000CE0101960E94D603CE0145960E94D60383
:1017600080921E0390921F03A0922003B092210347
:1017700091EB491651046104710431F041EB442EA0
:10178000512C612C712CFACD20E030E040E05FE379
:10179000C701B6010E94091360934203709343038B
:1017A000809344039093450320E030E040E05FE302
:1017B0006BA97CA98DA99EA90E94091360933A0385
:1017C00070933B0380933C0390933D0320E030E013
:1017D00040E05FE36FA978AD89AD9AAD0E9409132F
:1017E00060933203709333038093340390933503F3
:1017F00020E030E040E05FE3609126037091270332
:1018000080912803909129030E94091360932A0371
:1018100070932B0380932C0390932D0320E030E0F2
:1018200040E05FE3C501B4010E9409136093220305
:101830007093230380932403909325038AEA91E015
:101840000E94130760914203709143038091440307
:10185000909145030E9471078DEB91E00E94130760
:1018600060913A0370913B0380913C0390913D035A
:101870000E9471078AEC91E00E9413076091320385
:101880007091330380913403909135030E94710766
:1018900081EE91E00E94130760912A0370912B035F
:1018A00080912C0390912D030E94710786EF91E0A7
:1018B0000E941307609122037091230380912403F7
:1018C000909125030E9471074091220350912303B8
:1018D000609124037091250322E0CE0101960E94BD
:1018E000DB0340912A0350912B0360912C037091EC
:1018F0002D0322E0CE010F960E94DB0340913203BC
:1019000050913303609134037091350322E0CE018E
:1019100045960E94DB03409142035091430360913E
:1019200044037091450322E0CE014B960E94DB03F5
:1019300040913A0350913B0360913C0370913D0309
:1019400022E0CE0181960E94DB0366EA71E0CE01BF
:1019500087960E940B04BE016F5D7F4FCE01879674
:101960000E948B0369E072E00E947203BE01655E13
:101970007F4F0E948B036EE072E00E947203BE01F3
:101980006B5E7F4F0E948B0363E172E00E947203E3
:10199000BE01615F7F4F0E948B0368E172E00E948D
:1019A0007203BE016F5F7F4F0E948B0364EF71E093
:1019B0000E9472031EA61DA618AA1FA61AAA19AA7B
:1019C0008215930571F0DC016D917C911197611581
:1019D000710539F014964D915C911597C1010E94E3
:1019E0009E03CE0187960E94D603CE0181960E9467
:1019F000D603CE014B960E94D603CE0145960E9497
:101A0000D603CE010F960E94D603CE0101960E9406
:101A1000D60309A91AA96801B1E0CB1AD108EDB71C
:101A2000FEB7E01BF10B0FB6F894FEBF0FBEEDBF83
:101A30002DB73EB72F5F3F4F79010115110581F09A
:101A4000232B71F00C151D0508F468016DA57EA50A
:101A5000A601C7010E947417F701EC0DFD1D10824D
:101A6000902F0C3108F0C9C08091E9028111FCCFA0
:101A7000E3E0E00F4E2F409530E1439FB001112489
:101A80006427462F50E0342F22272F6FBA01F4E04D
:101A900075956795FA95E1F726273727A3E0440F58
:101AA000551FAA95E1F724273527AE2FB0E014E0A3
:101AB000B595A7951A95E1F7A45ABE4F8C918093DE
:101AC0000B01EF70F0E0E45AFE4F808180930C012F
:101AD0006EE071E0DE2CF7018E2F8D198917C8F5A5
:101AE0008191482F422750E1459FD0011124A4271E
:101AF0004A2F50E0B42FAA27232F33272A2B3B2B22
:101B0000DA0114E0B595A7951A95E1F72A273B2746
:101B1000A3E0440F551FAA95E1F724273527AB0111
:101B200041505109A82FB0E014E0B595A7951A953A
:101B3000E1F7A45ABE4FFC90DA01FC928F70A82FF7
:101B4000B0E0A45ABE4F8C91DB018C936E5F7F4F47
:101B5000C3CF0F5F000FF901E095F095802F90E063
:101B6000855F9E4FDF0124E0B695A7952A95E1F7A2
:101B7000AF70BB27A45ABE4F2C91DC012C93A1E07F
:101B8000A00FB0E09D01255F3E4FCF018F709927D8
:101B9000845A9E4FDC018C91D9018C93A2E0A00F56
:101BA000B0E09D01255F3E4FCF01892F9927829597
:101BB0008F70845A9E4FDC018C91D9018C93A3E0E5
:101BC000A00FB0E0A55FBE4FEF2FFF27EF70FF27FC
:101BD000E45AFE4F80818C93045F0093E8021092D8
:101BE000E7021092E6021092E50261E080910201A4
:101BF0000E94BE0481E08093E9028091E902811194
:101C0000FCCF8DE192E00E94130783EA91E00E94ED
:101C1000130749A95AA96DA57EA586E493E00E9401
:101C2000220183EA91E00E941307C1010E94D603BA
:101C3000EBADFCAD0FB6F894FEBF0FBEEDBF0E943A
:101C40001E0241CB163009F43ACB10CBE6E4F3E0A8
:101C50001382128288EE93E0A0E0B0E08483958343
:101C6000A683B78320E731E03183208325EC30E081
:101C70003587248724EC30E03787268720EC30E056
:101C8000318B208B21EC30E0338B228B22EC30E047
:101C9000358B248B26EC30E0378B268B118E128E01
:101CA000138E148EE3EEF3E0138212828483958305
:101CB000A683B78382E891E0918380830895EF92B1
:101CC0000F931F93CF93DF93E80147FD02C034E0E9
:101CD00001C034E1E42F440FFF0BF7FF03C0F1957F
:101CE000E195F109E32E022F2E2FAE010E94BF0EC7
:101CF000CE01DF91CF911F910F91EF90089566274C
:101D000077270C944D101F93FC0199278827BC015D
:101D1000E89411911032E9F3193010F01E30C8F335
:101D20001B3251F01D3249F4689406C00E94AA0E7D
:101D3000610F711D811D911D119110531A30B0F367
:101D40003EF490958095709561957F4F8F4F9F4F92
:101D50001F910895592F482F372F262F660F771F71
:101D6000881F991F660F771F881F991F620F731FA7
:101D7000841F951F660F771F881F991F08954F9224
:101D80005F926F927F929F92AF92BF92CF92DF92BB
:101D9000EF92FF920F931F93CF93DF93CDB7DEB7F0
:101DA00029970FB6F894DEBF0FBECDBF6A01122F80
:101DB000B02E2BE3201720F0FF24F394F00E02C086
:101DC000BCE3FB2E0F2D27E0AE014F5F5F4F0E945B
:101DD000AA11AC018981982F9970913031F0E1FC02
:101DE00006C0E0FE06C090E205C09DE203C09BE293
:101DF00001C090E0EE2DE07183FF3CC0911102C064
:101E000083E001C084E0811718F4212F281B01C052
:101E100020E0E1110BC0F601822F30E2882319F097
:101E200031938150FBCFC20ED11C20E0992329F0C1
:101E3000D6019C93F60131966F01C6010396E2FE2E
:101E40000AC03EE4D6013C9341E411964C931197AD
:101E500012963C9306C03EE6F601308341E641838C
:101E60003283FC01322F40E2332309F442C0419314
:101E70003150FACF82FF44C0911102C083E001C00B
:101E800084E0811718F4212F281B01C020E0E11104
:101E90000BC0F601822F30E2882319F03193815074
:101EA000FBCFC20ED11C20E0992329F0D6019C93D0
:101EB000F60131966F01C6010396E2FE0BC039E4CC
:101EC000D6013C933EE411963C93119736E412966A
:101ED0003C9307C039E6F60130833EE6318336E6AF
:101EE0003283FC01322F40E2332319F04193315009
:101EF000FBCFFC01E20FF11D10828EEF9FEFB7C008
:101F0000F1E0911101C0F0E06F2F70E0141615069A
:101F100024F49A012F5F3F4F02C021E030E0260FEA
:101F2000371FBB2029F06B2D70E06F5F7F4F02C021
:101F300060E070E0260F371F612F70E0261737072B
:101F40001CF4121B212F01C020E03E2D387159F4E2
:101F5000D601322F60E2332319F06D933150FBCF5D
:101F6000C20ED11C20E0FF2331F0D6019C93B601B4
:101F70006F5F7F4F6B01E1110BC0F601922F30E3D1
:101F8000992319F031939150FBCFC20ED11C20E060
:101F90009F2D940F3A81782F7071A72E84FF03C074
:101FA000313309F49150191624F4993018F098E05F
:101FB00001C091E0E42F852F57FF02C0E0E080E0F0
:101FC0006E2F782FE0E0F0E0AEE29A2E3A01691A27
:101FD00071082A01461A570A0B2D10E01195019538
:101FE00011096F3F8FEF780729F4D6019C92C60143
:101FF00001966C014617570784F0661677066CF455
:102000007F01E40CF51CA1E0B0E0AC0FBD1FEA0EAF
:10201000FB1ED7011196BC9002C090E3B92E61500F
:1020200071093196C60101967C016017710724F091
:10203000D601BC926C01D5CF6417750741F43633D5
:1020400020F4353321F4A11002C081E3B82EF6014B
:10205000B082F701822F90E2882319F0919381508A
:10206000FBCFF701E20FF11D108280E090E029968E
:102070000FB6F894DEBF0FBECDBFDF91CF911F9199
:102080000F91FF90EF90DF90CF90BF90AF909F9017
:102090007F906F905F904F900895A0E0B0E0E3E5EF
:1020A000F0E10C94D913EC017B016115710519F075
:1020B000DB018D939C938E010F5F1F4F7880872DDE
:1020C00090E00E948212892B11F0E801F4CFBDE26A
:1020D0007B1205C00F5F1F4F7980C1E008C0EBE2A3
:1020E0007E1204C08E010E5F1F4F7980C0E0680130
:1020F000F1E0CF1AD10843E050E060E770E0C6019C
:102100000E948B12892BF1F4680122E0C20ED11CCF
:1021100045E050E06BE670E0C6010E948B12892B0F
:1021200021F4680187E0C80ED11CE114F10419F014
:10213000D701CD92DC92C111FFC060E070E080E871
:102140009FE703C143E050E068E670E0C6010E94EB
:102150008B12892B51F4E114F10409F4F2C00E5FE3
:102160001F4FF70111830083ECC0680160E070E04D
:10217000CB0100E010E0F601D0EDD70DDA3058F5D4
:102180002C2F2260622E2C2F2870C2FF05C0211137
:1021900028C00F5F1F4F25C0222311F001501109E5
:1021A000A5E0B0E09B01AC010E94CA134B015C01A9
:1021B000880C991CAA1CBB1CC501B4016D0F711DB4
:1021C000811D911D6839A9E97A078A07A9E19A0753
:1021D00040F0C66005C0DE3F51F4C3FD44C0C86096
:1021E0006C2EBFEFCB1ADB0A7080C62DC4CF2D2F0B
:1021F0002F7D2531C1F540814D3211F4C06106C0FB
:102200004B3221F0319621E030E006C03296D60103
:1022100011964C9122E030E0A0EDA40FAA3018F006
:10222000E21BF30B20C040E050E04038BCE05B070D
:102230005CF49A01220F331F220F331F420F531FEA
:10224000440F551F4A0F511D3196DF0111972C91F4
:10225000A0EDA20FAA3048F3C4FF03C051954195E9
:102260005109040F151FC1FF07C0E114F10421F04B
:102270003197D701ED93FC930E94A812C370C3302D
:1022800019F06B017C0106C06B017C01F7FAF09438
:10229000F7F8F09420E030E0A901C701B6010E94F0
:1022A000A312882309F445C017FF06C011950195B4
:1022B0001109C7E8D0E002C0CFE9D0E05E01B8E183
:1022C000AB1AB1084601BE2DAF2D90E2E92EF12CDC
:1022D0000E151F0584F0FE0125913591459154910D
:1022E000B4018B2F9A2F0E9409134B01B82FA92FED
:1022F0000E191F09EDCF2497F594E794CA15DB0555
:1023000039F76401EB2EFA2E8E2D880F8F2D881F42
:102310008F3F49F020E030E0A901C701B6010E94DB
:10232000A312811106C082E290E09093F0038093A3
:10233000EF03C701B60109C060E070E080E89FEFDD
:1023400004C060E070E080EC9FE7CDB7DEB7EEE060
:102350000C94F513283008F027E03327DA01990FA1
:10236000311D87FD916000966105710539F4326079
:102370002E5F3D9330E32A95E1F708959F3F30F0BB
:1023800080387105610509F03C5F3C5F3D939130F9
:1023900008F08068911DDF93CF931F930F93FF92F6
:1023A000EF92192F987F9695E92F96959695E90FBC
:1023B000FF27E350FF4F99273327EE24FF24A7017F
:1023C000E70105900894079428F4360FE71EF81EDD
:1023D000491F511D660F771F881F991F0694A1F78B
:1023E0000590079428F4E70EF81E491F561FC11DDB
:1023F000770F881F991F661F0694A1F70590079411
:1024000028F4F80E491F561FC71FD11D880F991FAA
:10241000661F771F0694A1F70590079420F4490FD3
:10242000561FC71FD81F990F661F771F881F069456
:10243000A9F784911095177041F0D695C7955795D7
:102440004795F794E7941A95C1F7E3EAF0E06894AA
:102450001590159135916591959105907FE2739551
:10246000E118F10A430B560BC90BD009C0F7E10C78
:10247000F11E431F561FC91FD01D7EF4703311F487
:102480008A95E6CFE894015030F0080F0AF400274F
:10249000021708F4202F2395022F7A3328F079E3CE
:1024A0007D932A95E9F710C07D932A9589F60694C5
:1024B00097956795379517951794E118F10A430B8F
:1024C000560BC90BD00998F023957E9173957A33FA
:1024D00008F070E37C932013B8F77E9170617D93D0
:1024E00030F0839571E37D9370E32A95E1F7112431
:1024F000EF90FF900F911F91CF91DF91992787FD6A
:102500009095089591110C947613803219F08950AA
:102510008550C8F70895FB01DC014150504088F018
:102520008D9181341CF08B350CF4805E65916134A3
:102530001CF06B350CF4605E861B611171F3990B16
:102540000895881BFCCF0E94E51208F481E00895ED
:10255000E89409C097FB3EF490958095709561953D
:102560007F4F8F4F9F4F9923A9F0F92F96E9BB27F3
:102570009395F695879577956795B795F111F8CF6F
:10258000FAF4BB0F11F460FF1BC06F5F7F4F8F4FDA
:102590009F4F16C0882311F096E911C0772321F0D0
:1025A0009EE8872F762F05C0662371F096E8862F68
:1025B00070E060E02AF09A95660F771F881FDAF7BF
:1025C000880F9695879597F90895990F0008550FEC
:1025D000AA0BE0E8FEEF16161706E807F907C0F0A9
:1025E00012161306E407F50798F0621B730B840BB1
:1025F000950B39F40A2661F0232B242B252B21F48B
:1026000008950A2609F4A140A6958FEF811D811D2A
:1026100008950E941C130C9490130E94821338F0AA
:102620000E94891320F0952311F00C9479130C94D7
:102630007F1311240C94C4130E94A11370F3959F6F
:10264000C1F3950F50E0551F629FF001729FBB27A9
:10265000F00DB11D639FAA27F00DB11DAA1F649F45
:102660006627B00DA11D661F829F2227B00DA11DF8
:10267000621F739FB00DA11D621F839FA00D611D7E
:10268000221F749F3327A00D611D231F849F600D9F
:10269000211D822F762F6A2F11249F5750409AF0C8
:1026A000F1F088234AF0EE0FFF1FBB1F661F771F54
:1026B000881F91505040A9F79E3F510580F00C941F
:1026C00079130C94C4135F3FE4F3983ED4F38695DA
:1026D00077956795B795F795E7959F5FC1F7FE2BBF
:1026E000880F911D9695879597F9089599278827C2
:1026F000089597F99F6780E870E060E008959FEF84
:1027000080EC089500240A94161617061806090688
:10271000089500240A941216130614060506089557
:10272000092E0394000C11F4882352F0BB0F40F4DF
:10273000BF2B11F460FF04C06F5F7F4F8F4F9F4F1F
:10274000089557FD9058440F551F59F05F3F71F0A1
:102750004795880F97FB991F61F09F3F79F0879508
:102760000895121613061406551FF2CF4695F1DF91
:1027700008C0161617061806991FF1CF8695710521
:10278000610508940895E894BB2766277727CB0155
:1027900097F908950E940C14A59F900DB49F900D79
:1027A000A49F800D911D112408952F923F924F9266
:1027B0005F926F927F928F929F92AF92BF92CF92D1
:1027C000DF92EF92FF920F931F93CF93DF93CDB7DA
:1027D000DEB7CA1BDB0B0FB6F894DEBF0FBECDBF52
:1027E00009942A88398848885F846E847D848C8423
:1027F0009B84AA84B984C884DF80EE80FD800C812C
:102800001B81AA81B981CE0FD11D0FB6F894DEBF0E
:102810000FBECDBFED010895A29FB001B39FC001CF
:10282000A39F700D811D1124911DB29F700D811DFC
:102830001124911D08955058BB27AA270E943314D4
:102840000C9490130E94821338F00E94891320F098
:1028500039F49F3F19F426F40C947F130EF4E0959D
:10286000E7FB0C947913E92F0E94A11358F3BA17D0
:10287000620773078407950720F079F4A6F50C9496
:10288000C3130EF4E0950B2EBA2FA02D0B01B90146
:1028900090010C01CA01A0011124FF27591B99F0D6
:1028A000593F50F4503E68F11A16F040A22F232FE2
:1028B000342F4427585FF3CF469537952795A79532
:1028C000F0405395C9F77EF41F16BA0B620B730BD9
:1028D000840BBAF09150A1F0FF0FBB1F661F771F4A
:1028E000881FC2F70EC0BA0F621F731F841F48F4FF
:1028F000879577956795B795F7959E3F08F0B0CF88
:102900009395880F08F09927EE0F9795879508956E
:102910000E949C140C9490130E94891358F00E94FA
:10292000821340F029F45F3F29F00C947913511180
:102930000C94C4130C947F130E94A11368F3992381
:10294000B1F3552391F3951B550BBB27AA276217AB
:102950007307840738F09F5F5F4F220F331F441FB8
:10296000AA1FA9F335D00E2E3AF0E0E832D09150EC
:102970005040E695001CCAF72BD0FE2F29D0660FD9
:10298000771F881FBB1F261737074807AB07B0E81C
:1029900009F0BB0B802DBF01FF2793585F4F3AF022
:1029A0009E3F510578F00C9479130C94C4135F3F4B
:1029B000E4F3983ED4F3869577956795B795F795A8
:1029C0009F5FC9F7880F911D9695879597F9089590
:1029D000E1E0660F771F881FBB1F6217730784072C
:1029E000BA0720F0621B730B840BBA0BEE1F88F73B
:1029F000E09508950E9401156894B1110C94C413D8
:102A000008950E94A91388F09F5798F0B92F99272D
:102A1000B751B0F0E1F0660F771F881F991F1AF0C9
:102A2000BA95C9F714C0B13091F00E94C313B1E058
:102A300008950C94C313672F782F8827B85F39F057
:102A4000B93FCCF3869577956795B395D9F73EF462
:102A500090958095709561957F4F8F4F9F4F08950A
:102A60000E94E51208F48FEF08950E94E512880B8A
:102A7000990B0895A1E21A2EAA1BBB1BFD010DC0E4
:102A8000AA1FBB1FEE1FFF1FA217B307E407F5071E
:102A900020F0A21BB30BE40BF50B661F771F881FFA
:102AA000991F1A9469F760957095809590959B0190
:102AB000AC01BD01CF010895EE0FFF1F0590F49109
:102AC000E02D0994CF93DF938230910510F482E0DA
:102AD00090E0E091F303F091F40320E030E0C0E0F7
:102AE000D0E0309711F14081518148175907C0F06B
:102AF0004817590761F482819381209719F09B83CD
:102B00008A832BC09093F4038093F30326C021158E
:102B1000310519F04217530718F49A01BE01DF017D
:102B2000EF010280F381E02DDCCF2115310509F1A1
:102B3000281B390B2430310590F412968D919C910D
:102B400013976115710521F0FB019383828304C003
:102B50009093F4038093F303FD01329644C0FD018A
:102B6000E20FF31F81939193225031092D933C93EF
:102B70003AC02091F1033091F203232B41F42091CC
:102B8000490130914A013093F2032093F1032091DF
:102B90004701309148012115310541F42DB73EB769
:102BA00040914B0150914C01241B350BE091F103F6
:102BB000F091F203E217F307A0F42E1B3F0B281746
:102BC000390778F0AC014E5F5F4F2417350748F0A6
:102BD0004E0F5F1F5093F2034093F1038193919343
:102BE00002C0E0E0F0E0CF01DF91CF9108950F93B4
:102BF0001F93CF93DF93009709F48CC0FC013297A9
:102C0000138212820091F3031091F4030115110550
:102C100081F420813181820F931F2091F103309143
:102C2000F2032817390779F5F093F203E093F103E3
:102C300071C0D80140E050E0AE17BF0750F41296C3
:102C40002D913C911397AD012115310509F1D90161
:102C5000F3CF9D01DA013383228360817181860F76
:102C6000971F8217930769F4EC0128813981260F99
:102C7000371F2E5F3F4F318320838A819B8193834F
:102C80008283452B29F4F093F403E093F30342C0CD
:102C90001396FC93EE931297ED01499159919E0181
:102CA000240F351FE217F30771F480819181840F9F
:102CB000951F029611969C938E9382819381139611
:102CC0009C938E931297E0E0F0E0D80112968D91DC
:102CD0009C911397009719F0F8018C01F6CF8D9114
:102CE0009C9198012E5F3F4F820F931F2091F1031B
:102CF0003091F2032817390769F4309729F41092BC
:102D0000F4031092F30302C0138212821093F203B1
:102D10000093F103DF91CF911F910F910895A0E0EF
:102D2000B0E0E5E9F6E10C94D913EC01009721F449
:102D3000CB010E946215B8C0FC01E60FF71F9C0191
:102D400022503109E217F30708F4ACC0D9010D9104
:102D50001C91119706171707B0F00530110508F4FC
:102D60009FC0C80104978617970708F499C00250BE
:102D70001109061B170B019311936D937C93CF01DF
:102D80000E94F7158DC05B01A01AB10A4C01800E9C
:102D9000911EA091F303B091F40340E050E0E12CC8
:102DA000F12C109709F44AC0A815B905D1F56D901A
:102DB0007C901197630182E0C80ED11CCA14DB0419
:102DC00080F1A3014A195B096A0182E0C80ED11C97
:102DD0001296BC9012971396AC91B5E0CB16D10425
:102DE00040F0B282A38351834083D9016D937C93D9
:102DF0000AC00E5F1F4FC301800F911FF90191831D
:102E00008083EB2DFA2FE114F10431F0D7011396F2
:102E1000FC93EE93129744C0F093F403E093F30312
:102E20003FC08D919C9111974817590708F4AC0148
:102E30007D0112960D90BC91A02DB3CF8091F1032E
:102E40009091F20388159905E1F446175707C8F4E5
:102E50008091470190914801009741F48DB79EB74A
:102E600040914B0150914C01841B950BE817F907D9
:102E7000C8F4F093F203E093F103F90171836083E6
:102E80000FC0CB010E9462157C01009759F0A80188
:102E9000BE010E945917CE010E94F715C70104C058
:102EA000CE0102C080E090E0CDB7DEB7EEE00C943A
:102EB000F513FB01DC0102C001900D92415050401E
:102EC000D8F70895FC018191861721F08823D9F75E
:102ED000992708953197CF010895FB01DC010190F6
:102EE0000D920020E1F70895FB01DC0141505040B4
:102EF00048F001900D920020C9F701C01D92415089
:102F00005040E0F70895FB0151915523A9F0BF010E
:102F1000DC014D9145174111E1F759F4CD010190C4
:102F2000002049F04D9140154111C9F3FB014111B9
:0E2F3000EFCF81E090E001970895F894FFCF75
:102F3E000B0C0A2A2A2A2A2A2A382C000000000002
:102F4E000000000000000000000000000000000073
:102F5E000000000000000000000000000000000063
:102F6E000000000000000000000000000000000053
:102F7E00000000000000000000F5038000000001CA
:102F8E00000800400000010004050D000D0E131591
:102F9E0016191A1C232526292A2C3234000000006B
:102FAE00B50122014D01FC017E015C0170010000A2
:102FBE000000C302AF02D5028302A702930284026D
:102FCE0056616C7565732066726F6D20536C6176F9
:102FDE006520000D0A0050485600617665726167E3
:102FEE00655F6D6F697374757265203A0061766501
:102FFE00726167655F7068203A006176657261671D
:10300E00655F75765F696E74656E73697479203A63
:10301E0000617665726167655F74656D707261746B
:10302E00757265203A00617665726167655F6875D5
:10303E006D6964697479203A003F4D4F49003B55E4
:10304E005649003E54454D003C48554D004D657364
:10305E00736167652073656E7420746F2074686584
:10306E00207265636569766572006E616E00696EC9
:06307E0066006F7666009B
:00000001FF
