:100000000C94DF000C9407010C9407010C94070179
:100010000C9407010C9407010C9407010C94070140
:100020000C9407010C9407010C9407010C94070130
:100030000C9407010C9407010C9407010C94070120
:100040000C94CC060C9407010C9455040C942F04CA
:100050000C9407010C9407010C9407010C94070100
:100060000C9468070C94070100407A10F35A00A022
:10007000724E18090010A5D4E80000E87648170071
:1000800000E40B54020000CA9A3B000000E1F505B1
:10009000000080969800000040420F000000A086FB
:1000A00001000000102700000000E803000000002D
:1000B0006400000000000A000000000001000000D1
:1000C00000002C76D888DC674F0823DFC1DFAE59EB
:1000D000E1B1B796E5E3E453C63AE651997696E87E
:1000E000E6C28426EB898C9B62ED407C6FFCEFBC02
:1000F0009C9F40F2BAA56FA5F490055A2AF75C932D
:100100006B6CF9676DC11BFCE0E40D47FEF520E662
:10011000B500D0ED902E0300943577050080841E45
:10012000080000204E0A000000C80C333333330FA0
:10013000986E12831141EF8D2114893BE65516CF3D
:10014000FEE6DB18D1844B381BF77C1D901DA4BB49
:10015000E424203284725E228100C9F124ECA1E5FE
:100160003D270404040404040404020202020202FF
:10017000030303030303010204081020408001026B
:1001800004081020010204081020000000002300D1
:100190002600290000000000240027002A0000009B
:1001A0000000250028002B000000000800020100CC
:1001B0000003040700000000000000006F09112484
:1001C0001FBECFEFD8E0DEBFCDBF23E0AEEFB1E082
:1001D00001C01D92A237B207E1F711E0A0E0B1E043
:1001E000E4E2F7E202C005900D92AE3FB107D9F705
:1001F00010E0CFEDD0E004C02197FE010E947E11F7
:10020000CE3DD107C9F70E94C8090C9490130C94F5
:100210000000E0912302F09124020190F081E02D92
:10022000682F83E292E00994CF92DF92EF92FF92DF
:100230000F931F93CF93DF936C017A018B01C0E082
:10024000D0E0CE15DF0589F0D8016D918D01D60182
:10025000ED91FC910190F081E02DC6010995892B6B
:1002600011F47E0102C02196ECCFC701DF91CF913E
:100270001F910F91FF90EF90DF90CF90089583E250
:1002800092E00E94B80421E0892B09F420E0822F3B
:1002900008958F929F92AF92BF920F931F93CF9327
:1002A000DF93CDB7DEB7A1970FB6F894DEBF0FBED0
:1002B000CDBF19A2423008F44AE08E010F5D1F4FF6
:1002C000842E912CA12CB12CA50194010E945C11CB
:1002D000E62FB901CA0101501109EA3014F4E05DBA
:1002E00001C0E95CD801EC93232B242B252B61F76B
:1002F000B80183E292E00E949608A1960FB6F894A6
:10030000DEBF0FBECDBFDF91CF911F910F91BF9088
:10031000AF909F908F9008954F925F926F927F92CF
:100320008F929F92AF92BF92CF92DF92EF92FF9205
:100330006B017C01B42E9B01AC010E9457118823F4
:1003400019F06AE271E027C026013701E89477F8D6
:100350002FEF3FEF4FE75FE7C301B2010E94571154
:1003600081110DC02FEF3FEF4FE75FE7C301B201EF
:100370000E94E90E18161CF46EE271E00CC02FEF1B
:100380003FEF4FE75FE4C701B6010E945211181614
:1003900094F462E371E083E292E0FF90EF90DF90EB
:1003A000CF90BF90AF909F908F907F906F905F9015
:1003B0004F900C9496082FEF3FEF4FE75FECC7018B
:1003C000B6010E94E90E87FDE4CF20E030E0A901EC
:1003D000C701B6010E94E90E87FF09C08DE20E94A5
:1003E00009014C01F7FAF094F7F8F09402C0812C5F
:1003F000912CA12C60E070E080E09FE3AB1441F011
:1004000020E030E040E251E40E94B110A394F6CF26
:100410009B01AC01C701B6010E9445102B013C01B4
:100420000E9423116B017C010E94EE0E9B01AC0126
:10043000C301B2010E9444102B013C014AE0C701F4
:10044000B6010E9449017C01E80CF91CBB2029F08F
:100450008EE20E940901E80EF91EDB2CDD2021F15D
:1004600020E030E040E251E4C301B2010E944F0FAE
:100470002B013C010E9423114B01A12CB12C4AE01D
:10048000C501B4010E944901E80EF91EC501B4017D
:100490000E94EE0E9B01AC01C301B2010E94441008
:1004A0002B013C01DA94DACFC701FF90EF90DF9087
:1004B000CF90BF90AF909F908F907F906F905F9004
:1004C0004F9008958F929F92AF92BF92CF92DF92FA
:1004D000EF92FF920F931F93CF93DF93CDB7DEB7C9
:1004E000C054D1400FB6F894DEBF0FBECDBF2FB7BA
:1004F000F89440911F025091200260912102709166
:1005000022022FBFFC0101851285238534856A01F3
:100510007B01C01AD10AE20AF30AE0EDCE16E7E049
:10052000DE06E104F10418F4FC018189B4C08C01F9
:10053000FC01418752876387748714821382128279
:100540001182108261E085810E94F3056AEF70E0FC
:1005500080E090E00E94920661E0F80185810E94AF
:100560003F0660E0F80185810E94F30564E170E0D8
:1005700080E090E00E949206F89461E0F8018581A5
:100580000E94F3058BE990E00197F1F762E0F80132
:1005900085810E943F0683E290E00197F1F760E0D9
:1005A000C8010E941607672B682B692B21F4F801FC
:1005B000118A789441C061E0C8010E941607672B38
:1005C000682B692BA1F3CE0101967C015E019FEBA4
:1005D000A91A9EEFB90A670160E0C8010E941607D8
:1005E000F601608371838283938361E0C8010E9476
:1005F0001607F6016483758386839783F8E0CF0E30
:10060000D11CCA14DB0441F7789420E030E0F701F4
:10061000408151816281738184809580A680B780FA
:10062000411551056105710529F081149104A1045A
:10063000B10421F4F801118A80E02DC0F90183E0B2
:10064000F595E7958A95E1F7E00FF11F8081880F16
:10065000481559056A057B0508F4816080832F5F82
:100660003F4FF8E0EF0EF11C2832310581F6F8011A
:10067000248130E04081818190E0840F911D42818E
:10068000840F911D4381840F911D992728173907E5
:1006900089F681E0818BC05CDE4F0FB6F894DEBF37
:1006A0000FBECDBFDF91CF911F910F91FF90EF90C3
:1006B000DF90CF90BF90AF909F908F9008950E9451
:1006C0007B13EF92FF920F931F93CF93DF93EC0175
:1006D00081E0888F9B8D8C8D981305C0E889F989FE
:1006E000808185FD24C0F62E0B8D10E00F5F1F4F1B
:1006F0000F731127E02E8C8DE8120CC00FB607FC8B
:10070000FACFE889F989808185FFF5CFCE010E9473
:10071000B005F1CF8B8DFE01E80FF11DE35AFF4FBD
:10072000F0820B8FEA89FB898081806207C0EE89A5
:10073000FF896083E889F98980818064808381E012
:1007400090E0DF91CF911F910F91FF90EF9008956E
:10075000682F80EC92E00C949B05CF92DF92EF9291
:10076000FF920F931F93CF93DF93CDB7DEB7A1977F
:100770000FB6F894DEBF0FBECDBF7C01CB01BA012E
:10078000D70111961C921E9213961C921E921297DC
:1007900015961C921E92149742E0420F8E010F5F35
:1007A0001F4F0E94630C6C01F70180819181C1147D
:1007B000D10469F1F60101900020E9F731978F012A
:1007C0000C191D09009741F0D70112962D913C910B
:1007D00013972017310760F5B8016F5F7F4F0E94B4
:1007E000B112FC01009781F0D70111969C938E9372
:1007F00013961C930E93129714968D919C911597B6
:10080000892BB1F4108214C0F70180819181009787
:1008100011F00E941912D70111961C921E92159682
:100820001C921E92149713961C921E92129708C047
:10083000F70115830483B601808191810E94891399
:10084000A1960FB6F894DEBF0FBECDBFDF91CF915A
:100850001F910F91FF90EF90DF90CF9008951F921E
:100860000F920FB60F9211242F933F934F935F93E4
:100870006F937F938F939F93AF93BF93EF93FF9368
:1008800083E292E00E94B005FF91EF91BF91AF919A
:100890009F918F917F916F915F914F913F912F9198
:1008A0000F900FBE0F901F9018951F920F920FB6CA
:1008B0000F9211242F938F939F93EF93FF93E091C7
:1008C0003302F09134028081E0913902F0913A02D2
:1008D00082FD12C0908180913C028F5F8F732091C6
:1008E0003D02821751F0E0913C02F0E0ED5DFD4FDA
:1008F000958F80933C0201C08081FF91EF919F9181
:100900008F912F910F900FBE0F901F901895FC01A3
:10091000538D448D252F30E0842F90E0821B930B64
:10092000541710F0CF96089501970895FC01918D0A
:10093000828D981761F0828DDF01A80FB11D5D9641
:100940008C91928D9F5F9F73928F90E008958FEFAF
:100950009FEF0895FC01918D828D981731F0828D63
:10096000E80FF11D858D90E008958FEF9FEF0895BA
:10097000FC01918D228D892F90E0805C9F4F821B1E
:1009800091098F739927089580E090E0892B29F0D1
:100990000E943F0181110C94000008953FB7F89424
:1009A00080916A0390916B03A0916C03B0916D03E9
:1009B00026B5A89B05C02F3F19F00196A11DB11DBA
:1009C0003FBFBA2FA92F982F8827820F911DA11DF5
:1009D000B11DBC01CD0142E0660F771F881F991F32
:1009E0004A95D1F7089585ED8093BC008091BC00B5
:1009F00084FDFCCF10920002089540912203262F1F
:100A000030E0240F311D21323105DCF42091000249
:100A10002430C9F4FC0180E090E0861758F430914E
:100A200022032191DC01AE5FBC4FA30FB11D2C93BB
:100A30000196F3CF80912203680F6093220380E038
:100A4000089581E0089582E00895E0910902F0910F
:100A50000A02309729F010920202109201020994C2
:100A60000895CF93DF93AC01E0910003F09101036F
:100A70003097F1F090910402809103029817C0F032
:100A800090E0292F30E02617370754F4D901A052FF
:100A9000BD4FEA01C20FD31F88818C939F5FF1CFB6
:100AA0001092040260930302CB01DF91CF9109946D
:100AB000DF91CF9108950895E0910402809103029F
:100AC000E81730F4F0E0E052FD4F808190E00895A7
:100AD0008FEF9FEF08959091040280910302981781
:100AE00050F4E92FF0E0E052FD4F208130E09F5FAD
:100AF0009093040202C02FEF3FEFC9010895809147
:100B0000030290E020910402821B91090895CF9383
:100B1000DF9300D0CDB7DEB7CB01642F49835A8372
:100B20000E94FD044981842F5A81952F0F900F90C8
:100B3000DF91CF910895CF93DF931F92CDB7DEB7AA
:100B4000698361E0CE0101960E94FD0481E090E09E
:100B50000F90DF91CF910895089580E090E008957F
:100B6000FC01848DDF01A80FB11DA35ABF4F2C914A
:100B7000848D90E001968F739927848FA689B78919
:100B80002C93A089B1898C9180648C93938D848DF2
:100B9000981306C00288F389E02D80818F7D8083C1
:100BA0000895CF93DF93EC01888D8823C9F0EA89FB
:100BB000FB89808185FD05C0A889B9898C9186FD56
:100BC0000FC00FB607FCF5CF808185FFF2CFA88953
:100BD000B9898C9185FFEDCFCE010E94B005E7CF9A
:100BE000DF91CF91089590E0FC01E855FE4F3491DC
:100BF000FC01EA58FE4F2491FC01EE59FE4FE491AE
:100C0000EE2309F43BC0332339F1333091F038F44B
:100C10003130A9F0323001F584B58F7D12C0373004
:100C200091F03830A1F03430B9F4809180008F7D9C
:100C300003C0809180008F77809380000DC084B5C1
:100C40008F7784BD09C08091B0008F7703C08091F9
:100C5000B0008F7D8093B000F0E0EE0FFF1FE256F2
:100C6000FE4FA591B4918FB7F894EC91611103C038
:100C700020952E2301C02E2B2C938FBF0895CF9348
:100C8000DF9390E0FC01EA58FE4F2491FC01EE59FD
:100C9000FE4F8491882361F190E0880F991FFC0139
:100CA000EC56FE4FC591D491FC01E256FE4FA59142
:100CB000B491611109C09FB7F8948881209582236F
:100CC0008883EC912E230BC0623061F49FB7F894B7
:100CD0003881822F809583238883EC912E2B2C934F
:100CE0009FBF06C08FB7F894E8812E2B28838FBF53
:100CF000DF91CF9108958E3008F08E508770806418
:100D000080937C0080917A00806480937A00809147
:100D10007A0086FDFCCF809178002091790090E0E8
:100D2000922B08958F929F92AF92BF92CF92DF92B3
:100D3000EF92FF926B017C010E94CE044B015C019B
:100D4000C114D104E104F104F1F00E94CE04DC01ED
:100D5000CB0188199909AA09BB09883E9340A105CE
:100D6000B10570F321E0C21AD108E108F10888EE5C
:100D7000880E83E0981EA11CB11CC114D104E104AB
:100D8000F10419F7DDCFFF90EF90DF90CF90BF9087
:100D9000AF909F908F9008951F920F920FB60F9271
:100DA00011242F933F938F939F93AF93BF93809181
:100DB0001F0290912002A0912102B0912202309155
:100DC000690323E0230F2D3720F40196A11DB11DE7
:100DD00005C026E8230F0296A11DB11D20936903CB
:100DE00080931F0290932002A0932102B0932202CD
:100DF00080916A0390916B03A0916C03B0916D0395
:100E00000196A11DB11D80936A0390936B03A0937B
:100E10006C03B0936D03BF91AF919F918F913F9100
:100E20002F910F900FBE0F901F9018958F929F9249
:100E3000AF92BF92CF92DF92EF92FF920F931F93E8
:100E4000CF93DC011796CC911797662311F08C2F66
:100E500001C080E018962C91189730E0220F331FC4
:100E600026573E4F40E050E0BA01F9010591149138
:100E7000F80190819C23981315C06A017B019FEFB4
:100E8000C91AD90AE90AF90A1D968D909D90AD906C
:100E9000BC905097481559056A057B0538F4B70191
:100EA000A601E3CF342F252FCB0104C030E020E092
:100EB00080E090E0632F722FCF911F910F91FF90F0
:100EC000EF90DF90CF90BF90AF909F908F9008955C
:100ED0001F920F920FB60F9211242F933F934F93AF
:100EE0005F936F937F938F939F93AF93BF93EF9392
:100EF000FF938091B900887F803609F49CC068F523
:100F0000883209F45BC090F4803109F454C038F49D
:100F1000882309F4F6C0883009F44DC0F6C0883142
:100F200009F44CC0803209F45DC0EFC0803409F48C
:100F300068C048F4803309F455C0883309F0E5C02F
:100F400080934503D8C0803509F44FC0883509F433
:100F50005DC0883409F0D9C0D6C0883909F4C7C04B
:100F6000A8F4883709F467C038F4883609F463C0F8
:100F7000803709F460C0C9C0883809F4B8C0803926
:100F800009F45FC0803809F0C0C05BC0803B09F441
:100F900086C038F4803A09F466C0883A09F47FC004
:100FA000B4C0803C09F4A7C0883C09F4A4C0883BC5
:100FB00009F48AC0AAC08091680310C090916703A9
:100FC00080916603981770F5E091670381E08E0FBA
:100FD00080936703F0E0EA5BFC4F80818093BB0065
:100FE00085EC86C0809345038EC0E091670381E065
:100FF0008E0F809367038091BB00F0E0EA5BFC4FAB
:10100000808390916703809166036EC0E0916703CF
:1010100081E08E0F809367038091BB00F0E0EA5B74
:10102000FC4F80838091FF0181116DC081E080932E
:10103000FE0184EA61C083E08093000210924403C1
:10104000CFCF80914403803208F051C0E091440337
:1010500081E08E0F809344038091BB00F0E0EC5D53
:10106000FC4F8083BDCF85EC8093BC0010920002C2
:1010700080914403803230F4E0914403F0E0EC5D71
:10108000FC4F10826091440370E0E0910502F09102
:10109000060284E293E009951092440336C084E08E
:1010A000809300021092230310922203E091070222
:1010B000F0910802099580912203811105C081E019
:1010C0008093220310920203E091230381E08E0FAC
:1010D00080932303F0E0EE5FFC4F80818093BB00A0
:1010E0009091230380912203981708F479CF85E823
:1010F0008093BC000AC085EC8093BC001092000273
:1011000004C0109245030E94F304FF91EF91BF9138
:10111000AF919F918F917F916F915F914F913F918F
:101120002F910F900FBE0F901F90189561157105AC
:1011300079F0FB0101900020E9F73197AF01461BE0
:10114000570BDC01ED91FC910280F381E02D0994B5
:1011500080E090E00895CF93DF93CDB7DEB762973C
:101160000FB6F894DEBF0FBECDBF6EEC71E083E228
:1011700092E00E9496086AE571E083E292E00E94A4
:10118000960866EE71E080EC92E00E94960840912D
:101190000B0250910C0260910D0270910E0222E040
:1011A000CE0107960E94AD036F81788580EC92E0B6
:1011B0000E9496088FE390E00E94A8036AEE71E017
:1011C00080EC92E00E949608409113025091140224
:1011D000609115027091160222E0CE0101960E94E4
:1011E000AD0369817A8180EC92E00E949608898142
:1011F0009A810E9419128BE390E00E94A8036EEE80
:1012000071E080EC92E00E94960840910F025091AC
:101210001002609111027091120222E0CE0101963B
:101220000E94AD0369817A8180EC92E00E94960869
:101230008EE390E00E94A80363EF71E080EC92E0FF
:101240000E94960840911B0250911C0260911D0261
:1012500070911E0222E0CE010D960E94AD036D85B5
:101260007E8580EC92E00E9496088D859E850E9486
:1012700019128CE390E00E94A80368EF71E080EC03
:1012800092E00E94960840911702509118026091D6
:10129000190270911A0222E0CE010D960E94AD0350
:1012A0006D857E8580EC92E00E9496088D859E85F6
:1012B0000E9419128AE390E00E94A80389819A8112
:1012C0000E9419128F8198850E94191262960FB69A
:1012D000F894DEBF0FBECDBFDF91CF910895E3E25A
:1012E000F2E01382128288EE93E0A0E0B0E0848303
:1012F0009583A683B7832AE031E03183208325ECF0
:1013000030E03587248724EC30E03787268720ECCF
:1013100030E0318B208B21EC30E0338B228B22ECC0
:1013200030E0358B248B26EC30E0378B268B118E0A
:10133000128E138E148EE0ECF2E0138212828483FC
:101340009583A683B7838CE191E091838083AEEC93
:10135000B2E084E015968C9315978BE016968C93EB
:101360001697EAE7F1E0E4911796EC931797E6E613
:10137000F1E0E4911896EC93189740E85EE360E0A2
:1013800070E01D964D935D936D937C9350970895F7
:10139000CF93DF93CDB7DEB7A4970FB6F894DEBF37
:1013A0000FBECDBF789484B5826084BD84B5816062
:1013B00084BD85B5826085BD85B5816085BD809120
:1013C0006E00816080936E00109281008091810098
:1013D0008260809381008091810081608093810090
:1013E000809180008160809380008091B100846052
:1013F0008093B1008091B00081608093B0008091B3
:101400007A00846080937A0080917A008260809371
:101410007A0080917A00816080937A0080917A00CE
:10142000806880937A001092C100E0913302F091BD
:10143000340282E08083E0912F02F091300210822A
:10144000E0913102F09132028FEC808310923B02E6
:10145000E0913702F091380286E08083E091350216
:10146000F0913602808180618083E0913502F091B5
:101470003602808188608083E0913502F0913602E7
:10148000808180688083E0913502F091360280810E
:101490008F7D808366E371E083E292E00E9496088C
:1014A0006AE571E083E292E00E94960882E680930A
:1014B000BA0085E295E0909308028093070281E3E9
:1014C00095E0909306028093050210920402109218
:1014D000030210920202109201021092000281E0B7
:1014E0008093FF011092FE0161E082E10E94F3050A
:1014F00061E083E10E94F3058091B9008E7F8093C3
:10150000B9008091B9008D7F8093B90088E4809301
:10151000B80085E48093BC008BEA98E090930A02BF
:101520008093090260E08EE00E943F0660E08FE059
:101530000E943F0660E080E10E943F0660E081E19A
:101540000E943F0612E1EEECF2E0DE011196812FDF
:1015500001900D928A95E1F7CE0101960E946202F8
:101560008823B1F18F818B3029F090F18551823041
:1015700040F02EC06B8170E080E090E00E94EE0EA3
:101580002BC00B81602F6F7770E080E090E00E94AD
:10159000F00E20E030E040E853E40E944F0F6B0172
:1015A0007C018C81682F70E080E090E00E94F00E5A
:1015B0009B01AC01C701B6010E9445102DEC3CEC2B
:1015C0004CEC5DE30E944F0F07FF06C0905804C02B
:1015D00060E070E080EC9FE760931B0270931C0258
:1015E00080931D0290931E02EEECF2E0DE01539612
:1015F000812F01900D928A95E1F7CE0143960E94CA
:101600006202882381F1898D8B3031F160F185513F
:10161000823048F56B8970E080E090E00E94EE0E29
:1016200020E030E040E853E40E944F0F6B017C0162
:101630008C89682F70E080E090E00E94F00E9B01A2
:10164000AC01C701B6010E9445102DEC3CEC4CECFE
:101650005DE30E944F0F0BC06B8970E080E090E06B
:101660000E94EE0E04C060E070E080EC9FE76093A3
:101670001702709318028093190290931A028EE059
:101680000E947B069093CD028093CC02BC01990FFF
:10169000880B990B0E94F00E20E030E040E251EC04
:1016A0000E944F0F20E030EC4FE754E40E94B1104D
:1016B00060931302709314028093150290931602A4
:1016C0008FE00E947B066C0180E10E947B06BC01DA
:1016D000990F880B990B0E94F00E9B01AC0163E3FC
:1016E00073E383E590E40E94B1104B015C010D2C83
:1016F000000CEE08FF08C701B6010E94F00E9B0126
:10170000AC01C501B4010E944F0F4B015C016DE5B6
:1017100071E083E292E00E949608F7FE0CC08DE231
:101720000E94090166277727CB016C197D098E0974
:101730009F094AE003C04AE0C701B6010E9449017F
:101740006DE671E083E292E00E94960842E0C501F6
:10175000B4010E948C0124EA30E74DE75FE3C50144
:10176000B4010E94441020E030E040E751EC0E94B8
:101770004F0F22EE3AE744EF5FE30E94B11060930F
:101780000F0270931002809311029093120281E174
:101790000E947B06BC01990F880B990B0E94F00EEA
:1017A00020E030E040EA50E40E944F0F20E030E0BB
:1017B00040E85AE30E944F0F20E030E040E650E45A
:1017C0000E944F0F20E030E0A9010E944F0F60936C
:1017D0000B0270930C0280930D0290930E026FE740
:1017E00071E083E292E00E949608C090CC02D09013
:1017F000CD020D2C000CEE08FF08F7FE0CC08DE2A8
:101800000E94090166277727CB016C197D098E0993
:101810009F094AE003C04AE0C701B6010E9449019E
:101820006AE571E083E292E00E9496086BE871E05D
:1018300083E292E00E94960860910B0270910C0284
:1018400080910D0290910E0242E00E948C016AE5A7
:1018500071E083E292E00E94960867E971E083E21A
:1018600092E00E94960860910F02709110028091A0
:1018700011029091120242E00E948C0162EB71E031
:1018800083E292E00E94960860911B0270911C0214
:1018900080911D0290911E0242E00E948C0162EC38
:1018A00071E083E292E00E949608609117027091C5
:1018B00018028091190290911A0242E00E948C0154
:1018C0000E94C40440CEEF920F931F93CF93DF93F7
:1018D000E80147FD02C034E001C034E1E42F440FC9
:1018E000FF0BF7FF03C0F195E195F109E32E022FFD
:1018F0002E2FAE010E94830CCE01DF91CF911F915C
:101900000F91EF9008954F925F926F927F929F9206
:10191000AF92BF92CF92DF92EF92FF920F931F93FD
:10192000CF93DF93CDB7DEB729970FB6F894DEBF1C
:101930000FBECDBF6A01122FB02E2BE3201720F06F
:10194000FF24F394F00E02C0BCE3FB2E0F2D27E022
:10195000AE014F5F5F4F0E94110EAC018981982F3D
:101960009970913031F0E1FC06C0E0FE06C090E2D3
:1019700005C09DE203C09BE201C090E0EE2DE07146
:1019800083FF3CC0911102C083E001C084E0811755
:1019900018F4212F281B01C020E0E1110BC0F60133
:1019A000822F30E2882319F031938150FBCFC20E91
:1019B000D11C20E0992329F0D6019C93F6013196A1
:1019C0006F01C6010396E2FE0AC03EE4D6013C93D5
:1019D00041E411964C93119712963C9306C03EE653
:1019E000F601308341E641833283FC01322F40E22D
:1019F000332309F442C041933150FACF82FF44C0EF
:101A0000911102C083E001C084E0811718F4212FF6
:101A1000281B01C020E0E1110BC0F601822F30E24B
:101A2000882319F031938150FBCFC20ED11C20E0E6
:101A3000992329F0D6019C93F60131966F01C601D6
:101A40000396E2FE0BC039E4D6013C933EE41196C6
:101A50003C93119736E412963C9307C039E6F601A1
:101A600030833EE6318336E63283FC01322F40E29A
:101A7000332319F041933150FBCFFC01E20FF11DEC
:101A800010828EEF9FEFB7C0F1E0911101C0F0E03E
:101A90006F2F70E01416150624F49A012F5F3F4F44
:101AA00002C021E030E0260F371FBB2029F06B2D4C
:101AB00070E06F5F7F4F02C060E070E0260F371F5D
:101AC000612F70E0261737071CF4121B212F01C06D
:101AD00020E03E2D387159F4D601322F60E23323D5
:101AE00019F06D933150FBCFC20ED11C20E0FF23C3
:101AF00031F0D6019C93B6016F5F7F4F6B01E1110E
:101B00000BC0F601922F30E3992319F031939150D5
:101B1000FBCFC20ED11C20E09F2D940F3A81782F6D
:101B20007071A72E84FF03C0313309F49150191648
:101B300024F4993018F098E001C091E0E42F852F4B
:101B400057FF02C0E0E080E06E2F782FE0E0F0E089
:101B5000AEE29A2E3A01691A71082A01461A570A0A
:101B60000B2D10E01195019511096F3F8FEF78074C
:101B700029F4D6019C92C60101966C0146175707BD
:101B800084F0661677066CF47F01E40CF51CA1E086
:101B9000B0E0AC0FBD1FEA0EFB1ED7011196BC9042
:101BA00002C090E3B92E615071093196C6010196C9
:101BB0007C016017710724F0D601BC926C01D5CF6F
:101BC0006417750741F4363320F4353321F4A1103E
:101BD00002C081E3B82EF601B082F701822F90E2B5
:101BE000882319F091938150FBCFF701E20FF11D8B
:101BF000108280E090E029960FB6F894DEBF0FBE09
:101C0000CDBFDF91CF911F910F91FF90EF90DF90AB
:101C1000CF90BF90AF909F907F906F905F904F90CC
:101C20000895283008F027E03327DA01990F311D95
:101C300087FD916000966105710539F432602E5F71
:101C40003D9330E32A95E1F708959F3F30F08038C7
:101C50007105610509F03C5F3C5F3D93913008F0F0
:101C60008068911DDF93CF931F930F93FF92EF92A4
:101C7000192F987F9695E92F96959695E90FFF274E
:101C8000EE53FF4F99273327EE24FF24A701E701E6
:101C900005900894079428F4360FE71EF81E491F94
:101CA000511D660F771F881F991F0694A1F7059095
:101CB000079428F4E70EF81E491F561FC11D770F21
:101CC000881F991F661F0694A1F70590079428F4B2
:101CD000F80E491F561FC71FD11D880F991F661F79
:101CE000771F0694A1F70590079420F4490F561F1B
:101CF000C71FD81F990F661F771F881F0694A9F763
:101D000084911095177041F0D695C79557954795D2
:101D1000F794E7941A95C1F7E8E6F0E06894159017
:101D2000159135916591959105907FE27395E11834
:101D3000F10A430B560BC90BD009C0F7E10CF11E99
:101D4000431F561FC91FD01D7EF4703311F48A95AE
:101D5000E6CFE894015030F0080F0AF4002702178C
:101D600008F4202F2395022F7A3328F079E37D930E
:101D70002A95E9F710C07D932A9589F606949795E0
:101D80006795379517951794E118F10A430B560B91
:101D9000C90BD00998F023957E9173957A3308F09A
:101DA00070E37C932013B8F77E9170617D9330F0DF
:101DB000839571E37D9370E32A95E1F71124EF9009
:101DC000FF900F911F91CF91DF91992787FD9095FB
:101DD00008950E942B0F08F481E00895E89409C04B
:101DE00097FB3EF490958095709561957F4F8F4F4E
:101DF0009F4F9923A9F0F92F96E9BB279395F69564
:101E0000879577956795B795F111F8CFFAF4BB0FE1
:101E100011F460FF1BC06F5F7F4F8F4F9F4F16C045
:101E2000882311F096E911C0772321F09EE8872FCF
:101E3000762F05C0662371F096E8862F70E060E08B
:101E40002AF09A95660F771F881FDAF7880F969504
:101E5000879597F90895990F0008550FAA0BE0E8A8
:101E6000FEEF16161706E807F907C0F0121613065C
:101E7000E407F50798F0621B730B840B950B39F49C
:101E80000A2661F0232B242B252B21F408950A2602
:101E900009F4A140A6958FEF811D811D08950E9430
:101EA000620F0C94D30F0E94C50F38F00E94CC0F24
:101EB00020F0952311F00C94BC0F0C94C20F112448
:101EC0000C9407100E94E40F70F3959FC1F3950FD7
:101ED00050E0551F629FF001729FBB27F00DB11DAE
:101EE000639FAA27F00DB11DAA1F649F6627B00D3E
:101EF000A11D661F829F2227B00DA11D621F739F27
:101F0000B00DA11D621F839FA00D611D221F749F34
:101F10003327A00D611D231F849F600D211D822F7B
:101F2000762F6A2F11249F5750409AF0F1F08823A2
:101F30004AF0EE0FFF1FBB1F661F771F881F9150CF
:101F40005040A9F79E3F510580F00C94BC0F0C94B3
:101F500007105F3FE4F3983ED4F386957795679535
:101F6000B795F795E7959F5FC1F7FE2B880F911DF9
:101F70009695879597F9089597F99F6780E870E09F
:101F800060E008959FEF80EC089500240A941616EF
:101F9000170618060906089500240A941216130657
:101FA000140605060895092E0394000C11F48823E5
:101FB00052F0BB0F40F4BF2B11F460FF04C06F5F01
:101FC0007F4F8F4F9F4F089557FD9058440F551FD7
:101FD00059F05F3F71F04795880F97FB991F61F0AB
:101FE0009F3F79F087950895121613061406551F22
:101FF000F2CF4695F1DF08C0161617061806991F8E
:10200000F1CF86957105610508940895E894BB2782
:1020100066277727CB0197F908952F923F924F9229
:102020005F926F927F928F929F92AF92BF92CF9268
:10203000DF92EF92FF920F931F93CF93DF93CDB771
:10204000DEB7CA1BDB0B0FB6F894DEBF0FBECDBFE9
:1020500009942A88398848885F846E847D848C84BA
:102060009B84AA84B984C884DF80EE80FD800C81C3
:102070001B81AA81B981CE0FD11D0FB6F894DEBFA6
:102080000FBECDBFED0108955058BB27AA270E946F
:102090005C100C94D30F0E94C50F38F00E94CC0F37
:1020A00020F039F49F3F19F426F40C94C20F0EF47B
:1020B000E095E7FB0C94BC0FE92F0E94E40F58F366
:1020C000BA17620773078407950720F079F4A6F51D
:1020D0000C9406100EF4E0950B2EBA2FA02D0B01D8
:1020E000B90190010C01CA01A0011124FF27591B5D
:1020F00099F0593F50F4503E68F11A16F040A22F63
:10210000232F342F4427585FF3CF469537952795D3
:10211000A795F0405395C9F77EF41F16BA0B620BD2
:10212000730B840BBAF09150A1F0FF0FBB1F661F19
:10213000771F881FC2F70EC0BA0F621F731F841F5C
:1021400048F4879577956795B795F7959E3F08F082
:10215000B0CF9395880F08F09927EE0F9795879544
:1021600008950E94C5100C94D30F0E94CC0F58F014
:102170000E94C50F40F029F45F3F29F00C94BC0F7A
:1021800051110C9407100C94C20F0E94E40F68F3D5
:102190009923B1F3552391F3951B550BBB27AA2720
:1021A00062177307840738F09F5F5F4F220F331F5A
:1021B000441FAA1FA9F335D00E2E3AF0E0E832D022
:1021C00091505040E695001CCAF72BD0FE2F29D025
:1021D000660F771F881FBB1F261737074807AB07F7
:1021E000B0E809F0BB0B802DBF01FF2793585F4F6C
:1021F0003AF09E3F510578F00C94BC0F0C940710F8
:102200005F3FE4F3983ED4F3869577956795B7954D
:10221000F7959F5FC9F7880F911D9695879597F958
:102220000895E1E0660F771F881FBB1F62177307D1
:102230008407BA0720F0621B730B840BBA0BEE1FE6
:1022400088F7E09508950E94EC0F88F09F5798F06A
:10225000B92F9927B751B0F0E1F0660F771F881FAB
:10226000991F1AF0BA95C9F714C0B13091F00E94C5
:102270000610B1E008950C940610672F782F882778
:10228000B85F39F0B93FCCF3869577956795B395EC
:10229000D9F73EF490958095709561957F4F8F4F5B
:1022A0009F4F08950E942B0F08F48FEF08950E940E
:1022B0002B0F880B990B0895A1E21A2EAA1BBB1BAA
:1022C000FD010DC0AA1FBB1FEE1FFF1FA217B30702
:1022D000E407F50720F0A21BB30BE40BF50B661F18
:1022E000771F881F991F1A9469F7609570958095DC
:1022F00090959B01AC01BD01CF010895EE0FFF1F2A
:102300000590F491E02D0994CF93DF9382309105ED
:1023100010F482E090E0E0917003F091710320E00E
:1023200030E0C0E0D0E0309711F140815181481792
:102330005907C0F04817590761F4828193812097AB
:1023400019F09B838A832BC0909371038093700351
:1023500026C02115310519F04217530718F49A01C8
:10236000BE01DF01EF010280F381E02DDCCF2115FA
:10237000310509F1281B390B2430310590F41296F0
:102380008D919C9113976115710521F0FB01938349
:10239000828304C09093710380937003FD01329691
:1023A00044C0FD01E20FF31F819391932250310944
:1023B0002D933C933AC020916E0330916F03232BF1
:1023C00041F4209102013091030130936F03209377
:1023D0006E0320910001309101012115310541F476
:1023E0002DB73EB74091040150910501241B350BD8
:1023F000E0916E03F0916F03E217F307A0F42E1B38
:102400003F0B2817390778F0AC014E5F5F4F241758
:10241000350748F04E0F5F1F50936F0340936E03D4
:102420008193919302C0E0E0F0E0CF01DF91CF9182
:1024300008950F931F93CF93DF93009709F48CC0F7
:10244000FC01329713821282009170031091710384
:102450000115110581F420813181820F931F209194
:102460006E0330916F032817390779F5F0936F03E6
:10247000E0936E0371C0D80140E050E0AE17BF0793
:1024800050F412962D913C911397AD012115310511
:1024900009F1D901F3CF9D01DA01338322836081F1
:1024A0007181860F971F8217930769F4EC012881C9
:1024B0003981260F371F2E5F3F4F318320838A815A
:1024C0009B8193838283452B29F4F0937103E093DE
:1024D000700342C01396FC93EE931297ED0149915D
:1024E00059919E01240F351FE217F30771F4808183
:1024F0009181840F951F029611969C938E938281F1
:10250000938113969C938E931297E0E0F0E0D801AC
:1025100012968D919C911397009719F0F8018C01F8
:10252000F6CF8D919C9198012E5F3F4F820F931FA4
:1025300020916E0330916F032817390769F43097A3
:1025400029F4109271031092700302C01382128258
:1025500010936F0300936E03DF91CF911F910F9142
:102560000895A0E0B0E0E7EBF2E10C941110EC016B
:10257000009721F4CB010E948411B8C0FC01E60F42
:10258000F71F9C0122503109E217F30708F4ACC091
:10259000D9010D911C91119706171707B0F005305E
:1025A000110508F49FC0C80104978617970708F41F
:1025B00099C002501109061B170B019311936D93DB
:1025C0007C93CF010E9419128DC05B01A01AB10A41
:1025D0004C01800E911EA0917003B091710340E0F8
:1025E00050E0E12CF12C109709F44AC0A815B90568
:1025F000D1F56D907C901197630182E0C80ED11CDB
:10260000CA14DB0480F1A3014A195B096A0182E064
:10261000C80ED11C1296BC9012971396AC91B5E0DF
:10262000CB16D10440F0B282A38351834083D901F9
:102630006D937C930AC00E5F1F4FC301800F911FE3
:10264000F90191838083EB2DFA2FE114F10431F02D
:10265000D7011396FC93EE93129744C0F093710345
:10266000E09370033FC08D919C91119748175907D3
:1026700008F4AC017D0112960D90BC91A02DB3CF52
:1026800080916E0390916F0388159905E1F44617C8
:102690005707C8F48091000190910101009741F41F
:1026A0008DB79EB74091040150910501841B950B95
:1026B000E817F907C8F4F0936F03E0936E03F9018C
:1026C000718360830FC0CB010E9484117C0100974D
:1026D00059F0A801BE010E948013CE010E94191278
:1026E000C70104C0CE0102C080E090E0CDB7DEB7E4
:1026F000EEE00C942D1081E090E0F8940C9490138F
:10270000FB01DC0102C001900D9241505040D8F70E
:102710000895FB01DC0101900D920020E1F708957E
:04272000F894FFCF5B
:1027240000007203800000000000610314018704AC
:10273400D105B8049604AA04000000009B0587058F
:10274400AD055B057F056B055C056E616E00696E0A
:1027540066006F7666004669656C6420506172613C
:102764006D6574657273204D6561737572656D6511
:102774006E742053797374656D000D0A004D5038E2
:10278400353131206F75747075743A2000204D50C6
:102794003835313120766F6C746167653A20004DAD
:1027A4006F697374757265203A20007048207661F1
:1027B4006C7565203A200020555620496E74656E6C
:1027C4007369747920286D572F636D5E3229203A1E
:1027D40020002054656D7065726174757265203ACD
:1027E400200048756D6964697479203A2000536546
:1027F4006E64696E672074686520696E666F726DB9
:102804006174696F6E00504856004D4F490055562B
:0E281400493A0054454D3A0048554D3A0000EF
:00000001FF
